:100E8C007580FFC2A4D2A5C2A600D2A6E5803322EB
:100E3700120E8C40FBC2A4C2A5D2A68F8000C2A608
:010E47002288
:100E4800120E8C40FBD2A4C2A5D2A68F8000C2A6E7
:010E58002277
:0A0EA7007F01120E377F0502000ED6
:100B9E007F38120E377F0512000E7F38120E377F08
:100BAE000512000E7F38120E377F08120E377F01A6
:100BBE00120E377F06120E371F12000E7F0C020E1A
:010BCE0037EF
:100C4300AE07ED7005EE24808003EE24C0FF120E84
:100C530037120699FF600C120E48740129F9E43A21
:040C6300FA80EE2203
:080EBB008F50120EDBAF502234
:030EEB00DFFE2205
:10000E00AE07AF061EEF600C7FF5120EEB7FF512FA
:05001E000EEB80EE2254
:100DC000D2A100D2A00000000000C2A100000000DB
:060DD00000C2A000002299
:100E2500C2A100D2A00000000000D2A10000000075
:020E3500002299
:100ABD00C209E4FEEFA806088002C333D8FC30E774
:100ACD0004D2A18002C2A100D2A00000000000C289
:100ADD00A00EBE08DF0000D2A10000D2A0000000D1
:0E0AED0030A104C2098002D209C2A000A209F1
:010AFB0022D8
:100BF900E4FFD2A1FE00C2A0000000000000D2A0C4
:100C09000000EF25E0FF30A1010F00000EBE08E54E
:040C1900C2A0000075
:010C1D0022B4
:100E5900C2A1000000D2A00000000000C2A0000052
:010E69002266
:100E6A00D2A1000000D2A00000000000C2A0000031
:010E7A002255
:0A0A21008F518D528B538A54895572
:100A2B00E4F557E557C39556503C120DC0AF511224
:100A3B000ABD400122AF52120ABD400122AB53AA9C
:100A4B0054A955120699FF120ABD400122120E2518
:100A5B007F0112000E74012555F555E43554F554FC
:070A6B000552055780BDD3C1
:010A72002261
:020A7300AC07CE
:100A7500120DC0120ABD400122AF05120ABD400188
:100A850022EC04FF120ABD400122E4FDE51F14FF1C
:100A9500EDC39F5014120BF9EF1206B2120E5974E2
:100AA5000129F9E43AFA0D80E3120BF9EF1206B2C7
:070AB500120E6A120E25D398
:010ABC002217
:080EC3002573005475726500EF
:0A0E9C000164000167000265000018
:100DEB00D2AFD2885389F0438901E4F58CF58AD2CE
:040DFB00A8D2A922AF
:03000300020CAF3D
:100CAF00C0E0C0D00564E564B40213B28C308C038D
:100CBF00756401208C08C2A8756701756400D0D0D7
:030CCF00D0E03240
:03000B00020DFFE4
:100DFF00C0E00566E56670020565758A00758C00B2
:030E0F00D0E032FE
:100B3600120DA9120C67120DEB7F01120D117F0227
:100B4600120D11753900753A00753B227BFF7A0E3E
:100B560079C3120404EF4E60EA7BFF7A0E79C6125F
:040B6600008880DFA4
:100D92003A00253032582530325800253034580078
:070DA200253032580D0A0054
:0A0895008C0B8D0C8B088A09890A70
:10089F00850D17850E181209748E108F117BFF7A34
:1008AF000D79921200887BFF7A0D7994850B39852B
:1008BF000C3A850D3B850E3C120088E4F50FAB0812
:1008CF00AA09A90A75F002E50FA4F58285F0831233
:1008DF0006C4F53A85F0397BFF7A0D799D120088B1
:1008EF00050FE50FC3940440D57BFF7A0D79A285E0
:0808FF00103985113A0200884E
:0A0974008B128A138914AF05AE043C
:10097E00E4FDFCE5182FFFE5173EFEED2FFDEC3EE6
:10098E00FCE4F519AB12AA13A91475F002E519A42B
:10099E00F58285F0831206C4FBAAF0EA7E002DFFD5
:1009AE00EE3CFE7C00EF2BFDEC3EFC0519E519B488
:0F09BE0004D2EDF4FFECF4FEEF2401FFE43EFE63
:0109CD002207
:100C6700120DD67F0512000E120D477F0512000EDA
:100C77007F20120ECB7F08120ECB7F01120D117F42
:040C87000502000E54
:100DD600D2917F0112000EC2917F0212000ED291B3
:050DE6007F0102000E78
:100D4700C2907FFF120D607FFF120D607FFF120DB3
:090D5700607FFF120D60D29022B2
:100D6000E4FEEF30E704D2928002C292C293EF25F4
:080D7000E0FFD2930EBE08EA79
:010D78002258
:100C1E00AE6EAD6D780812070F8F6F8E6E8D6D8C68
:010C2E006C59
:100C2F00E4FFFEC293EF25E0FF3094010FD2930E45
:030C3F00BE08F0FC
:010C4200228F
:080ECB00C290120D60D29022CA
:100BCF008F6B8E6A8D698C68C29078101206FC123A
:100BDF000D60AF6BAE6AAD69AC6878081206FC1297
:0A0BEF000D60AF6B120D60D2902272
:070ED300C290120C2FD29017
:010EDA0022F5
:100D7900C290120C2FAD07ED7D00FC120C2FED2F48
:080D8900FDE43CD290FEAF0531
:010D9100223F
:1009CE00C290120C2FE48F6FF56EF56DF56CAC6C5A
:1009DE00120C1EE4FCFDFEE56F2FF56FEE356EF585
:1009EE006EED356DF56DEC356CF56CAF6FFC120C74
:1009FE001EE4FCFDFEE56F2FF56FEE356EF56EED28
:100A0E00356DF56DEC356CF56CD290AF6FAE6EAD9D
:020A1E006DFC6D
:010A200022B3
:030CD200120ECB34
:100CD500E4FFFE30950B0FBF00010EBE1FF5BF40B0
:0D0CE500F2C3EF9440EE941F4003120D4740
:010CF20022DF
:100AFC00EF24F0601624F0601224C0601314601010
:100B0C0024F1600C1460092471701E755D0880035B
:100B1C00755D18120ECBE55DAF5CB40803020ECB0D
:090B2C00AE5BAD5AAC59120BCFBF
:010B3500229D
:020907008F5E01
:10090900E55E24F0601624F0601224C060131460C0
:100919001024F1600C1460092471700A755F088055
:100929000C755F18800774FFFFFEFDFC22E55E442D
:1009390008FF120ECBE55FB4100A120D79E48F633C
:100949008E62800DE55FB4080E120ED3E48F63F555
:1009590062F561F560800B1209CE8F638E628D613D
:0A0969008C60AF63AE62AD61AC605C
:010973002261
:100D11008F36E536B401047F108007E536B4020A48
:0B0D21007F11120ECB7F46120CD22275
:100D2C008F77E577B401047F108007E577B4020A6A
:0B0D3C007F11120ECB7F86120CD2221A
:100CF3008F78E578B401047F108007E578B4020D9E
:0E0D03007F11120ECB7FC6120ECB120CD52222
:020B6A008F708A
:100B6C00E4F572F573F571120CD5E570B401047FE0
:100B7C00388007E570B402057F39120ECB120D795F
:100B8C008E728F730571E571C3940240DAAE72AF49
:010B9C0073E5
:010B9D002235
:03002300020EEEDC
:010EEE0032D1
:080EDB008F993099FDC29922A4
:070EE3003098FDAF99C298A1
:010EEA0022E5
:100C8B008B748A758976AF051DEF6017AB7405768B
:100C9B00E576AA757002057514F9120699FF120E06
:040CAB00DB80E322E5
:100DA90053877F75985053890F438920758BFD753B
:070DB9008DFDC2ABD28E22BA
:03000000020809EA
:0C080900787FE4F6D8FD75817902085074
:10069900BB010689828A83E0225002E722BBFE025F
:0906A900E32289828A83E4932292
:1006B200BB010689828A83F0225002F722BBFE0127
:0206C200F32221
:1006C400BB0110E58229F582E5833AF583E0F5F074
:1006D400A3E0225009E92582F886F008E622BBFE51
:1006E4000AE92582F8E2F5F008E222E5832AF58397
:0806F400E993F5F0A3E993225C
:1006FC00E8600FECC313FCED13FDEE13FEEF13FFDC
:03070C00D8F122FF
:10070F00E8600FEFC333FFEE33FEED33FDEC33FC48
:03071F00D8F122EC
:10002600E5452439F8E60545227836300702783961
:10003600E475F00112079F0206992000EB7F2ED28D
:10004600008018EF540F2490D43440D4FF30040BB2
:10005600EF24BFB41A0050032461FFE54660021581
:10006600460549E5497002054830070D7836E475BE
:10007600F00112079FEF0206B2020EBB7403D2070D
:100086008003E4C207F5458B368A378938E4F5469E
:10009600F548F549E54660077F2012006180F57551
:1000A60047FFC201C200C202C203C205C206C2089D
:1000B60012002FFF700D3007057F00120072AF4946
:1000C600AE4822B4255FC2D5C20412002FFF24D049
:1000D600B40A00501A75F00A784630D50508B6FFFE
:1000E6000106C6A426F620D5047002D20380D924C0
:1000F600CFB41A00EF5004C2E5D204020272D20154
:1001060080C6D20080C0D20280BCD2D580BAD205C9
:1001160080B47F201200612002077401B5460040BA
:10012600F1120026FF12006102009AD208D2068060
:1001360095120026FB120026FA120026F94A4B7089
:100146000679437A037BFF20022EE546602A7E006D
:100156008E8275830012072260060EEE654770F0E8
:10016600C2D5EBC0E0EAC0E0E9C0E0EE1202B9D0C9
:10017600E0F9D0E0FAD0E0FB120699FF60AAEBC0E6
:10018600E0EAC0E0E9C0E0120061D0E02401F9D065
:10019600E03400FAD0E0FBE5470460DCD547D980BF
:1001A600877BFF7A0279B5D202809C79108002792A
:1001B60008C206C2088008D2D5790A8004790AC224
:1001C600D5E547047002F547E4FAFDFEFF12002666
:1001D600FC7B08200113120026FD7B1030000A125A
:1001E6000026FE120026FF7B20EC3382D592D550E6
:1001F60013C3E43000069FFFE49EFEE42001039D46
:10020600FDE49CFCE4CBF8C201EC700CCFCECDCC67
:10021600E824F8F870F38017C3EF33FFEE33FEEDF2
:1002260033FDEC33FCEB33FB994002FB0FD8E9EBD3
:10023600300105F8D0E0C448B201C0E00AEC4D4EEA
:100246004F78207B0070C2EAB5470040BCC0E01280
:1002560002BBD0F0D0E0200104C4C0E0C4B201C0AB
:10026600F012004AD0F0D5F0EB02009A1207BF0157
:10027600375301B15801084C01044201B54F01BD85
:0F0286004401BD49011D4301C35501A74601A70E
:100295004501A747036350010C2D01102E01332B97
:1002A500011423013120034C2A00CC480000012B06
:1002B5003F3F3F00790AA2D5200314300509B91044
:1002C500020404B9080104A2D52006025001042045
:1002D50002689202B546005034C0E07F2030031911
:1002E5007F30A20272067205500F120312C202C2BB
:1002F50006C205C2087F30800F300503E9C0E01251
:100305000061300503D0E0F9D0E0B546CC300517E3
:100315007F30B9100C1200617F583004077F788058
:1003250003B908031200613002057F2D0200617FC9
:10033500202008F87F2B2006F322920280CF286E1A
:10034500756C6C2900D2011200263001F8C20178C3
:100355004630D50108F60200CC2D5043495812000D
:10036500262403B405004001E490035E9312005275
:0D037500743A120052D2037546040201B121
:10038200E54B30030104F823282439F8227836306B
:1003920003027839E475F00112079F02069960ECB6
:1003A200C54F7002154E14C54F200304FF0200060C
:1003B200783674FFF5F00207AFFF020E12E54C60CB
:1003C20006D54C037F002220030F120E7BEF60083C
:1003D200054FE54F7002054E227836120796120637
:1003E20099FF60E97836E475F00112079F80DE120A
:1003F20003C9EFC0E01203BBD0E040F380A0D203F8
:100402008002C2038B368A378938E4F54DF54BF505
:100412004EF54F754C00C202C200C201C204120363
:100422008FFF7005AF4D7E0022B4253012038FFF7F
:1004320024D0B40A00500C75F00AC54CA4254CF522
:100442004C80E924CFB41A00EF5002C2E5020665DF
:10045200D20180D8D20080D4D20480D0EF1203BB64
:1004620050081203F1EF600E80A9EFC0E01203C939
:10047200D0E06F609EEF60741203A080A71203C9E0
:10048200EF6069E54C7007054C80031203C9EF6009
:100492001420040E120382E475F00112079FEF127A
:1004A20006B2D54CE6200404054B054D80BA120372
:1004B200BFEFC0E01203BBD0E050041203A0E4FF80
:1004C20020040E120382E475F00112079FEF120658
:1004D200B2EF70DA200404054B054D808BE54C60C9
:1004E20002054C1203F11203BFEF70C6300304E49D
:1004F2001203A0E54D60030204267EFF7FFF222047
:10050200041174FFFCFDFEFF12038212079612070C
:100512007C054B020415D0E080D27900800A791064
:10052200800679088002790AD205E54C6002054C02
:10053200E9C0E01203F1EF60DD1203C9BF2D04D25E
:10054200028003BF2B091203F1EF60CA1203BFD06E
:10055200E0B40A028033B40802802EBF3027700252
:100562007408C205C0E01203BFD0E0BF7802800366
:10057200BF5816054CD54C028007D54C04D20580D5
:100582000B741080197002740ABF000AEFF8E4FCC1
:10059200FDFEFF020618C0E0EF1203A0D0E0F9E46E
:1005A200FCFDFEFFE9C0E0ECC0E0EDC0E0EEC0E023
:1005B200EFC0E01203BFEFF8D0E0FFD0E0FED0E0E2
:1005C200FDD0E0FCD0F0E8604DB461004007B47BA0
:1005D200005002C2E524D0503DFA24F6500724F917
:1005E2005034240AFAEAB5F000502BCFA9F0A42F18
:1005F200FF92D5E9C5F0CEA4A2D53EFE92D5E9C5BB
:10060200F0CDA4A2D53DFD92D5E9C5F0CCA4A2D5EA
:0B0612003CFCC205808EE8C0E0200424
:10061D002A200508054D30020312076E12038212BF
:10062D000796054B20000B20010DEE8FF012074FA2
:10063D00800912077C8004EF1206B2D0E01203A0ED
:10064D00020415200410120382120796054BE54E85
:10065D00854FF012074F80E81207BF04DF530520C6
:10066D005804564C045242042E4805244F05284484
:10067D00047F43051C49052855050146050145051F
:0C068D000147045A2A06504E0000045E8B
:10081500020B36E493A3F8E493A34003F68001F2B8
:1008250008DFF48029E493A3F85407240CC8C333E4
:10083500C4540F4420C8834004F456800146F6DFB3
:10084500E4800B0102040810204080900E9CE47E99
:10085500019360BCA3FF543F30E509541FFEE493A8
:10086500A360010ECF54C025E060A840B8E493A36F
:10087500FAE493A3F8E493A3C8C582C8CAC583CA9A
:10088500F0A3C8C582C8CAC583CADFE9DEE780BE52
:010EA600004B
:10072200BB010CE58229F582E5833AF583E022508C
:1007320006E92582F8E622BBFE06E92582F8E222D6
:0D074200E58229F582E5833AF583E49322F0
:10074F00BB010A89828A83F0E5F0A3F0225006F7F5
:0F075F0009A7F01922BBFE06F3E5F009F31922F2
:0E076E00C3E49FFFE49EFEE49DFDE49CFC229C
:10077C00BB010789828A830207F15005E9F8020759
:0A078C00E5BBFE05E9F80207FD22B7
:09079600E6FB08E6FA08E6F92288
:10079F00FAE6FB0808E6F925F0F618E6CA3AF6225B
:1007AF00FAE6FB0808E625F0F9F618E63AFAF6221B
:1007BF00D083D082F8E4937012740193700DA3A3C9
:1007CF0093F8740193F5828883E4737402936860DD
:0607DF00EFA3A3A380DFDD
:100E7B00100A0B120EB1BF0D027F0A020EBBAF7927
:010E8B002244
:050006008F79D20A22EF
:100E1200EFC394094005EF940E4003BF2003D38033
:030E220001C322E7
:0C07E500ECF608EDF608EEF608EFF62240
:0C07F100ECF0A3EDF0A3EEF0A3EFF0227B
:0C07FD00ECF208EDF208EEF208EFF22238
:0A0EB1003098FDAF99C2987E002230
:00000001FF
