:1010E7007580FFC2A4D2A5C2A600D2A6E58033228E
:101092001210E740FBC2A4C2A5D2A68F8000C2A64E
:0110A200222B
:1010A3001210E740FBD2A4C2A5D2A68F8000C2A62D
:0110B300221A
:0A1110007F011210927F0502000E0D
:100DEF007F381210927F0512000E7F381210927FFB
:100DFF000512000E7F381210927F081210927F0199
:100E0F001210927F061210921F12000E7F0C02100A
:010E1F009240
:100E9400AE07ED7005EE24808003EE24C0FF12102F
:100EA4009212078FFF600C1210A3740129F9E43A1F
:040EB400FA80EE22B0
:03112A00DFFE22C3
:10000E00AE07AF061EEF600C7FF512112A7FF512B8
:05001E00112A80EE2212
:100FF200D2A100D2A00000000000C2A100000000A7
:0610020000C2A000002264
:10108000C2A100D2A00000000000D2A10000000018
:0210900000223C
:100D0800C209E4FEEFA806088002C333D8FC30E726
:100D180004D2A18002C2A100D2A00000000000C23B
:100D2800A00EBE08DF0000D2A10000D2A000000083
:0E0D380030A104C2098002D209C2A000A209A3
:010D4600228A
:100E4A00E4FFD2A1FE00C2A0000000000000D2A070
:100E5A000000EF25E0FF30A1010F00000EBE08E5FB
:040E6A00C2A0000022
:010E6E002261
:1010B400C2A1000000D2A00000000000C2A00000F5
:0110C4002209
:1010C500D2A1000000D2A00000000000C2A00000D4
:0110D50022F8
:0A0C2A008F088D098B0A8A0B890CD4
:100C3400E4F50EE50EC3950D503C120FF2AF081209
:100C44000D08400122AF09120D08400122AB0AAA87
:100C54000BA90C12078FFF120D08400122121080FD
:100C64007F0112000E7401250CF50CE4350BF50B15
:070C74000509050E80BDD348
:010C7B002256
:020C7C00AC07C3
:100C7E00120FF2120D08400122AF05120D084001AD
:100C8E0022EC04FF120D08400122E4FDE51414FFCE
:100C9E00EDC39F5014120E4AEF1207A81210B4742F
:100CAE000129F9E43AFA0D80E3120E4AEF1207A871
:070CBE001210C5121080D3D3
:010CC500220C
:10105A002573002532782532782A00000000000026
:03106A0000000083
:0A10F700011B00011E00021C000096
:040D47008E3F8F400C
:100D4B00E5401540AE3F7002153F4E6028E4F5417B
:100D5B007FC812112AB2A00541E541C394C840F0E7
:100D6B00C2A0E4F541E541C394C850D47F01120001
:050D7B000E054180F0AF
:010D80002250
:10103300D2AFD2885389F0438901E4F58CF58AD283
:04104300A8D2A92264
:03000300020EDC0E
:100EDC00C0E0C0D0051BE51BB40213B28C308C03F0
:100EEC00751B01208C08C2A8751E01751B00D0D083
:030EFC00D0E03211
:03000B0002104799
:10104700C0E0051DE51D7002051C758A00758C0042
:03105700D0E032B4
:1008FF0078227C007D007BFF7A1079657E007F086F
:10090F00120769120FD9120EB81210337F01120F8E
:10091F003E7F02120F3E75420075430075442E7BD9
:10092F00FF7A10795A120404EF4E60EAE52EB43ABA
:10093F00E57542FF75431075445D754500754600BA
:10094F0075472A754800754900754A2C7B007A0057
:10095F00792F120400EF4E60BDE52B6402452A701B
:10096F00B5E52C6003020A44E52D24FE6065146092
:10097F0010146075147003020A1324046003020A32
:10098F0044E51E60FCC2A8E4F51E851C22851D23CC
:10099F00AF8CEFFEAD8A7C00E42DF525EC3EF524FF
:1009AF007F01120DBB8E268F277F02120DBB8E2863
:1009BF008F297B007A007922852C44852D457D0275
:1009CF007C00120AF8E4F51CF51DF58CF58AD2A807
:1009DF00020925E4F528F529F526F527F524F5254F
:1009EF00F522F5237F04FE801674FFF528F529F50F
:1009FF0026F527F524F525F522F5237F047E001231
:100A0F000D47801BE4F524F525F522F5237F011210
:100A1F000DBB8E268F277F02120DBB8E288F297B51
:100A2F00007A007922852C44852D457D027C0012A9
:100A3F000AF80209257411F528F529F526F527F589
:100A4F0024F525F522F5237B007A007922852C44A5
:0D0A5F00852D457D027C00120AF802092554
:101008003A002530325825303258002530345800FF
:06101800253032580A00E9
:0A0AF8008C428D438B3F8A408941F8
:100B020085444E85454F120CC68E478F487BFF7A2F
:100B12001079081200887BFF7A10790A85424C8589
:100B2200434D85444E85454F120088E4F546AB3F60
:100B3200AA40A94175F002E546A4F58285F0831228
:100B420007BAF54D85F04C7BFF7A107913120088B5
:100B52000546E546C3940440D57BFF7A1079188593
:080B6200474C85484D02008854
:060CC6008B498A4A894BAC
:100CCC00E4F550ED254F2550F550E4F551AB49AA0C
:100CDC004AA94B75F002E551A4F58285F083120701
:100CEC00BAFDACF0EC25502DF5500551E551B4048E
:0B0CFC00DCE550F4FFEF2401FF7E0058
:010D070022C9
:100EB80012101E7F0512000E120F8E7F0512000EF3
:100EC8007F2012111A7F0812111A7F01120F3E7F1C
:040ED8000502000E01
:10101E00D2917F0112000EC2917F0212000ED29168
:05102E007F0102000E2D
:100F8E00C2907FFF120FA77FFF120FA77FFF120FD6
:090F9E00A77FFF120FA7D29022D9
:100FA700E4FEEF30E704D2928002C292C293EF25AB
:080FB700E0FFD2930EBE08EA30
:010FBF00220F
:100E6F00AE69AD6878081208058F6A8E698D688C37
:010E7F00670B
:100E8000E4FFFEC293EF25E0FF3094010FD2930EF2
:030E9000BE08F0A9
:010E9300223C
:08111A00C290120FA7D290222F
:100E20008F668E658D648C63C29078101207F21203
:100E30000FA7AF66AE65AD64AC6378081207F21217
:0A0E40000FA7AF66120FA7D2902291
:07112200C290120E80D29072
:0111290022A3
:100FC000C290120E80AD07ED7D00FC120E80ED2F59
:080FD000FDE43CD290FEAF05E8
:010FD80022F6
:100BD700C290120E80E48F6AF569F568F567AC6715
:100BE700120E6FE4FCFDFEE56A2FF56AEE3569F536
:100BF70069ED3568F568EC3567F567AF6AFC120E85
:100C07006FE4FCFDFEE56A2FF56AEE3569F569EDDF
:100C17003568F568EC3567F567D290AF6AAE69ADB0
:020C270068FC67
:010C290022A8
:030EFF0012111AB3
:100F0200E4FFFE30950B0FBF00010EBE1FF5BF4080
:0D0F1200F2C3EF9440EE941F4003120F8EC7
:010F1F0022AF
:100D8100EF24F0601624F0601224C0601314601088
:100D910024F1600C1460092471701E751A08800317
:100DA100751A1812111AE51AAF19B4080302111AAB
:090DB100AE18AD17AC16120E20AD
:010DBA002216
:020B6A008F5D9D
:100B6C00E55D24F0601624F0601224C0601314605C
:100B7C001024F1600C1460092471700A755E0880F1
:100B8C000C755E18800774FFFFFEFDFC22E55D44CA
:100B9C0008FF12111AE55EB4100A120FC0E48F623E
:100BAC008E61800DE55EB4080E121122E48F62F5A1
:100BBC0061F560F55F800B120BD78F628E618D60D3
:0A0BCC008C5FAF62AE61AD60AC5FFC
:010BD60022FC
:100F3E008F3FE53FB401047F108007E53FB4020AFE
:0B0F4E007F1112111A7F46120EFF22C5
:100F59008F1FE51FB401047F108007E51FB4020A43
:0B0F69007F1112111A7F86120EFF226A
:100F20008F6BE56BB401047F108007E56BB4020D95
:0E0F30007F1112111A7FC612111A120F02221F
:020DBB008F3F68
:100DBD00E4F541F542F540120F02E53FB401047F21
:100DCD00388007E53FB402057F3912111A120FC0A2
:100DDD008E418F420540E540C3940240DAAE41AFEB
:010DED0042C3
:010DEE0022E2
:03110100016C007E
:0300230002112D9A
:01112D00328F
:100FD90053877F75985053890F438920758BFD7509
:090FE9008DFDC2ABD28ED299221B
:100F7400E56C7012BF0A083099FDC29975990D305D
:0A0F840099FDC2998F99E4F56C22E3
:0A1105003098FDAF99C298756C0197
:01110F0022BD
:03000000020A6C85
:0C0A6C00787FE4F6D8FD75816D020AB3B6
:10069900E709F608DFFA8046E709F208DFFA803E43
:1006A90088828C83E709F0A3DFFA8032E309F60830
:1006B900DFFA8078E309F208DFFA807088828C8398
:1006C900E309F0A3DFFA806489828A83E0A3F6084C
:1006D900DFFA805889828A83E0A3F208DFFA804C26
:1006E90080D280FA80C680D4806980F280338010FD
:1006F90080A680EA809A80A880DA80E280CA803366
:1007090089828A83ECFAE493A3C8C582C8CCC583DD
:10071900CCF0A3C8C582C8CCC583CCDFE9DEE780AD
:100729000D89828A83E493A3F608DFF9ECFAA9F02C
:10073900EDFB2289828A83ECFAE0A3C8C582C8CC82
:10074900C583CCF0A3C8C582C8CCC583CCDFEADE9B
:10075900E880DB89828A83E493A3F208DFF980CCFD
:1007690088F0EF60010E4E60C388F0ED2402B404F6
:100779000050B9F582EB2402B4040050AF2323459D
:0607890082239006E973D3
:10078F00BB010689828A83E0225002E722BBFE0268
:09079F00E32289828A83E493229B
:1007A800BB010689828A83F0225002F722BBFE0130
:0207B800F3222A
:1007BA00BB0110E58229F582E5833AF583E0F5F07D
:1007CA00A3E0225009E92582F886F008E622BBFE5A
:1007DA000AE92582F8E2F5F008E222E5832AF583A0
:0807EA00E993F5F0A3E9932265
:1007F200E8600FECC313FCED13FDEE13FEEF13FFE5
:03080200D8F12208
:10080500E8600FEFC333FFEE33FEED33FDEC33FC51
:03081500D8F122F5
:10002600E558244CF8E60558227849300702784C02
:10003600E475F00112089502078F2000EB7F2ED29F
:10004600008018EF540F2490D43440D4FF30040BB2
:10005600EF24BFB41A0050032461FFE5596002156E
:1000660059055CE55C7002055B30070D7849E4755F
:10007600F001120895EF0207A8020F747403D20765
:100086008003E4C207F5588B498A4A894BE4F5593F
:10009600F55BF55CE55960077F2012006180F57518
:1000A6005AFFC201C200C202C203C205C206C2088A
:1000B60012002FFF700D3007057F00120072AF5C33
:1000C600AE5B22B4255FC2D5C20412002FFF24D036
:1000D600B40A00501A75F00A785930D50508B6FFEB
:1000E6000106C6A426F620D5047002D20380D924C0
:1000F600CFB41A00EF5004C2E5D204020272D20154
:1001060080C6D20080C0D20280BCD2D580BAD205C9
:1001160080B47F201200612002077401B5590040A7
:10012600F1120026FF12006102009AD208D2068060
:1001360095120026FB120026FA120026F94A4B7089
:100146000679437A037BFF20022EE559602A7E005A
:100156008E8275830012081860060EEE655A70F0DE
:10016600C2D5EBC0E0EAC0E0E9C0E0EE1202B9D0C9
:10017600E0F9D0E0FAD0E0FB12078FFF60AAEBC0EF
:10018600E0EAC0E0E9C0E0120061D0E02401F9D065
:10019600E03400FAD0E0FBE55A0460DCD55AD98099
:1001A600877BFF7A0279B5D202809C79108002792A
:1001B60008C206C2088008D2D5790A8004790AC224
:1001C600D5E55A047002F55AE4FAFDFEFF12002640
:1001D600FC7B08200113120026FD7B1030000A125A
:1001E6000026FE120026FF7B20EC3382D592D550E6
:1001F60013C3E43000069FFFE49EFEE42001039D46
:10020600FDE49CFCE4CBF8C201EC700CCFCECDCC67
:10021600E824F8F870F38017C3EF33FFEE33FEEDF2
:1002260033FDEC33FCEB33FB994002FB0FD8E9EBD3
:10023600300105F8D0E0C448B201C0E00AEC4D4EEA
:100246004F78207B0070C2EAB55A0040BCC0E0126D
:1002560002BBD0F0D0E0200104C4C0E0C4B201C0AB
:10026600F012004AD0F0D5F0EB02009A1208B50160
:10027600375301B15801084C01044201B54F01BD85
:0F0286004401BD49011D4301C35501A74601A70E
:100295004501A747036350010C2D01102E01332B97
:1002A500011423013120034C2A00CC480000012B06
:1002B5003F3F3F00790AA2D5200314300509B91044
:1002C500020404B9080104A2D52006025001042045
:1002D50002689202B559005034C0E07F20300319FE
:1002E5007F30A20272067205500F120312C202C2BB
:1002F50006C205C2087F30800F300503E9C0E01251
:100305000061300503D0E0F9D0E0B559CC300517D0
:100315007F30B9100C1200617F583004077F788058
:1003250003B908031200613002057F2D0200617FC9
:10033500202008F87F2B2006F322920280CF286E1A
:10034500756C6C2900D2011200263001F8C20178C3
:100355005930D50108F60200CC2D504349581200FA
:10036500262403B405004001E490035E9312005275
:0D037500743A120052D2037559040201B10E
:10038200E55430030104F823282442F822783F3050
:1003920003027842E475F00112089502078F60ECBF
:1003A200C5587002155714C558200304FF020006F1
:1003B200783F74FFF5F00208A5FF02106DE5556065
:1003C20006D555037F002220030F1210D6EF6008D6
:1003D2000558E5587002055722783F12088C12071B
:1003E2008FFF60E9783FE475F00112089580DE1214
:1003F20003C9EFC0E01203BBD0E040F380A0D203F8
:100402008002C2038B3F8A408941E4F556F554F5D8
:1004120057F558755500C202C200C201C204120348
:100422008FFF7005AF567E0022B4253012038FFF76
:1004320024D0B40A00500C75F00AC555A42555F510
:100442005580E924CFB41A00EF5002C2E5020665D6
:10045200D20180D8D20080D4D20480D0EF1203BB64
:1004620050081203F1EF600E80A9EFC0E01203C939
:10047200D0E06F609EEF60741203A080A71203C9E0
:10048200EF6069E5557007055580031203C9EF60F7
:100492001420040E120382E475F001120895EF1283
:1004A20007A8D555E62004040554055680BA120360
:1004B200BFEFC0E01203BBD0E050041203A0E4FF80
:1004C20020040E120382E475F001120895EF120760
:1004D200A8EF70DA20040405540556808BE55560B8
:1004E2000205551203F11203BFEF70C6300304E494
:1004F2001203A0E55660030204267EFF7FFF22203E
:10050200041174FFFCFDFEFF12038212088C120814
:10051200720554020415D0E080D27900800A791065
:10052200800679088002790AD205E55560020555F0
:10053200E9C0E01203F1EF60DD1203C9BF2D04D25E
:10054200028003BF2B091203F1EF60CA1203BFD06E
:10055200E0B40A028033B40802802EBF3027700252
:100562007408C205C0E01203BFD0E0BF7802800366
:10057200BF58160555D555028007D55504D20580BA
:100582000B741080197002740ABF000AEFF8E4FCC1
:10059200FDFEFF020618C0E0EF1203A0D0E0F9E46E
:1005A200FCFDFEFFE9C0E0ECC0E0EDC0E0EEC0E023
:1005B200EFC0E01203BFEFF8D0E0FFD0E0FED0E0E2
:1005C200FDD0E0FCD0F0E8604DB461004007B47BA0
:1005D200005002C2E524D0503DFA24F6500724F917
:1005E2005034240AFAEAB5F000502BCFA9F0A42F18
:1005F200FF92D5E9C5F0CEA4A2D53EFE92D5E9C5BB
:10060200F0CDA4A2D53DFD92D5E9C5F0CCA4A2D5EA
:0B0612003CFCC205808EE8C0E0200424
:10061D002A200508055630020312086412038212BF
:10062D00088C055420000B20010DEE8FF0120845AB
:10063D0080091208728004EF1207A8D0E01203A0FF
:10064D0002041520041012038212088C0554E5577C
:10065D008558F012084580E81208B504DF530520CF
:10066D005804564C045242042E4805244F05284484
:10067D00047F43051C49052855050146050145051F
:0C068D000147045A2A06504E0000045E8B
:100A78000208FFE493A3F8E493A34003F68001F28D
:100A880008DFF48029E493A3F85407240CC8C3337F
:100A9800C4540F4420C8834004F456800146F6DF4E
:100AA800E4800B01020408102040809010F7E47ED7
:100AB800019360BCA3FF543F30E509541FFEE49343
:100AC800A360010ECF54C025E060A840B8E493A30A
:100AD800FAE493A3F8E493A3C8C582C8CAC583CA35
:100AE800F0A3C8C582C8CAC583CADFE9DEE780BEED
:0111040000EA
:10081800BB010CE58229F582E5833AF583E0225095
:1008280006E92582F8E622BBFE06E92582F8E222DF
:0D083800E58229F582E5833AF583E49322F9
:10084500BB010A89828A83F0E5F0A3F0225006F7FE
:0F08550009A7F01922BBFE06F3E5F009F31922FB
:0E086400C3E49FFFE49EFEE49DFDE49CFC22A5
:10087200BB010789828A830208E75005E9F802086A
:0A088200DBBBFE05E9F80208F322D3
:09088C00E6FB08E6FA08E6F92291
:10089500FAE6FB0808E6F925F0F618E6CA3AF62264
:1008A500FAE6FB0808E625F0F9F618E63AFAF62224
:1008B500D083D082F8E4937012740193700DA3A3D2
:1008C50093F8740193F5828883E4737402936860E6
:0608D500EFA3A3A380DFE6
:1010D600100A0B121105BF0D027F0A020F74AF6DC5
:0110E60022E7
:050006008F6DD20A22FB
:10106D00EFC394094005EF940E4003BF2003D380D6
:03107D0001C3228A
:0C08DB00ECF608EDF608EEF608EFF62249
:0C08E700ECF0A3EDF0A3EEF0A3EFF02284
:0C08F300ECF208EDF208EEF208EFF22241
:00000001FF
