:101F7B007580FFC2A4D2A5C2A600D2A6E5803322EB
:101F2600121F7B40FBC2A4C2A5D2A68F8000C2A608
:011F36002288
:101F3700121F7B40FBD2A4C2A5D2A68F8000C2A6E7
:011F47002277
:0A1FA4007F01121F267F0502000EC8
:101C96007F38121F267F0512000E7F38121F267FFF
:101CA6000512000E7F38121F267F08121F267F019D
:101CB600121F267F06121F261F12000E7F0C021F00
:011CC60026F7
:101D3B00AE07ED7005EE24808003EE24C0FF121F6A
:101D4B002612070CFF600C121F37740129F9E43AB5
:041D5B00FA80EE22FA
:031FBE00DFFE2221
:10000E00AE07AF061EEF600C7FF5121FBE7FF51216
:05001E001FBE80EE2270
:101E9900D2A100D2A00000000000C2A100000000F1
:061EA90000C2A0000022AF
:101F1400C2A100D2A00000000000D2A10000000075
:021F2400002299
:101BAF00C20BE4FEEFA806088002C333D8FC30E76F
:101BBF0004D2A18002C2A100D2A00000000000C286
:101BCF00A00EBE08DF0000D2A10000D2A0000000CE
:0E1BDF0030A104C20B8002D20BC2A000A20BE8
:011BED0022D5
:101CF100E4FFD2A1FE00C2A0000000000000D2A0BB
:101D01000000EF25E0FF30A1010F00000EBE08E545
:041D1100C2A000006C
:011D150022AB
:101F4800C2A1000000D2A00000000000C2A0000052
:011F58002266
:101F5900D2A1000000D2A00000000000C2A0000031
:011F69002255
:0A1AD1008F088D098B0A8A0B890C1F
:101ADB00E4F50EE50EC3950D503C121E99AF08129E
:101AEB001BAF400122AF09121BAF400122AB0AAA68
:101AFB000BA90C12070CFF121BAF400122121F1473
:101B0B007F0112000E7401250CF50CE4350BF50B5F
:071B1B000509050E80BDD392
:011B220022A0
:021B2300AC070D
:101B2500121E99121BAF400122AF05121BAF4001D7
:101B350022EC04FF121BAF400122E4FDE51414FF63
:101B4500EDC39F5014121CF1EF120752121F487477
:101B55000129F9E43AFA0D80E3121CF1EF1207525C
:071B6500121F59121F14D3D7
:011B6C002256
:101799002573002532782532782A00552025342EE4
:1017A900336620562025342E3366200052504D3A98
:1017B9002025392E346620200053544550204D4FA2
:1017C900544552204C454654210053544550204D10
:1017D9004F54455220524947485400563120253428
:1017E9002E33662056322025342E3366200052507F
:1017F9004D3A204E41202020202020202020005535
:101809004E4B4E4F574E2046554E4354494F4E006E
:10181900434845434B204E414D453A2030782530C9
:10182900325800534C415645204E414D45203078A1
:1018390030322000434F4E4E45435445442020301A
:10184900782530325800204D4F4442555320455297
:10185900524F522120200020204153434949206101
:101869006E64203A202020000000000000000000E3
:0A1F8B00011B00011E00021C0000F3
:041BEE008E3F8F4057
:101BF200E5401540AE3F7002153F4E6028E4F541C6
:101C02007FC8121FBEB2A00541E541C394C840F08F
:101C1200C2A0E4F541E541C394C850D47F0112004B
:051C22000E054180F0F9
:011C2700229A
:101EDA00D2AFD2885389F0438901E4F58CF58AD2CE
:041EEA00A8D2A922AF
:03000300021D8358
:101D8300C0E0C0D0051BE51BB40213B28C308C033A
:101D9300751B01208C08C2A8751E01751B00D0D0CD
:031DA300D0E0325B
:03000B00021EEEE4
:101EEE00C0E0051DE51D7002051C758A00758C008D
:031EFE00D0E032FF
:100D5A0078227C007D007BFF7A1879717E007F08FB
:100D6A001206E6121E80121C96121D5F121EDA7FF0
:100D7A0001121DE57F02121DE5121FA475420075BE
:100D8A00430075442E7BFF7A17799912119AEF4E18
:100D9A0060EAE52E643A60030210FC7542FF75436F
:100DAA001775449CF54575460075472AF5487549F7
:100DBA0000754A2CFB7A00792F121196EF4E60BC0F
:100DCA00E52B6402452A60030210C8E52C60030281
:100DDA001077E52D24FE7003020F4414601314707B
:100DEA0003020F83147003020FC424046003021069
:100DFA0077E51E60FCC2A8E4F51E851C22851D232A
:100E0A00AF8CEFFEAD8A7C00E42DF525EC3EF5248F
:100E1A007F01121C628E268F277F0112000E7F022D
:100E2A00121C628E288F297B007A007922852C4435
:100E3A00852D457D027C0012199F754CFF754D1753
:100E4A00754EA4AC26AD27E41201D1E4FBFA79A0D1
:100E5A007840120026E4FBFA7980784712012F8F36
:100E6A00528E518D508C4FAC28AD29E41201D1E439
:100E7A00FBFA79A07840120026E4FBFA79807847D9
:100E8A0012012F8F568E558D548C537B007A007920
:100E9A002E1209477B007A00792EE4FDFF121D3BD2
:100EAA00E4F546F5457544E0754340FFFE7D207C38
:100EBA004112159C7B9A7A9979B17840120026C022
:100ECA0004C005C006C007AE22AF23E4FCFDFBFA4E
:100EDA007901F81207BBA804A905AA06AB07E4FC26
:100EEA00FDEB2525FFEA3524FEED39FDEC38FC1231
:100EFA0001CCA804A905AA06AB07D007D006D005DD
:100F0A00D00412012F8F528E518D508C4F754CFF89
:100F1A00754D17754EB57B007A00792E1209477BFD
:100F2A00007A00792E7D01E4FF121D3BE4F51CF5E1
:100F3A001DF58CF58AD2A8020D86E4F528F529F567
:100F4A0026F527F524F525F522F5237F04FE121B45
:100F5A00EE7B007A007922852C44852D457D027C22
:100F6A000012199F7BFF7A1779C2E4FDFF121D3B1D
:100F7A007BFF7A1779C20210F274FFF528F529F57A
:100F8A0026F527F524F525F522F5237F047E0012A0
:100F9A001BEE7B007A007922852C44852D457D0243
:100FAA007C0012199F7BFF7A1779D3E4FDFF121D8B
:100FBA003B7BFF7A1779D30210F2E4F524F525F585
:100FCA0022F5237F01121C628E268F277F011200D1
:100FDA000E7F02121C628E288F297B007A007922EA
:100FEA00852C44852D457D027C0012199F754CFF86
:100FFA00754D17754EE4AC26AD27E41201D1E4FB1A
:10100A00FA79A07840120026E4FBFA798078471230
:10101A00012F8F528E518D508C4FAC28AD29E4127E
:10102A0001D1E4FBFA79A07840120026E4FBFA79B0
:10103A0080784712012F8F568E558D548C537B0022
:10104A007A00792E1209477B007A00792EE4FDFF97
:10105A00121D3B754CFF754D17754EF77B007A00D4
:10106A00792E1209477B007A00792E807B7411F55C
:10107A0028F529F526F527F524F525F522F5237B0C
:10108A00007A007922852C44852D457D027C001248
:10109A00199F7BFF7A187908E4FDFF121D3B754CF6
:1010AA00FF754D18754E19852C4F852D507B007A8A
:1010BA0000792E1209477B007A00792E802A7BFF5D
:1010CA007A18792CE4FDFF121D3B754CFF754D18FB
:1010DA00754E3D852A4F852B507B007A00792E125A
:1010EA0009477B007A00792E7D01E4FF121D3B023D
:1010FA000D867BFF7A18794FE4FDFF121D3B7BFFBB
:0E110A007A1879607D01E4FF121D3B020D860C
:101EAF003A0025303258253032580025303458004A
:061EBF00253032580A0034
:0A199F008C428D438B3F8A40894142
:1019A90085444E85454F121B6D8E478F487BFF7AC4
:1019B9001E79AF12094D7BFF7A1E79B185424C859C
:1019C900434D85444E85454F12094DE4F546AB3FDD
:1019D900AA40A94175F002E546A4F58285F0831273
:1019E9000764F54D85F04C7BFF7A1E79BA12094DD3
:1019F9000546E546C3940440D57BFF7A1E79BF8529
:081A0900474C85484D02094DD0
:061B6D008B498A4A894BF6
:101B7300E4F550ED254F2550F550E4F551AB49AA56
:101B83004AA94B75F002E551A4F58285F08312074B
:101B930064FDACF0EC25502DF5500551E551B4042E
:0B1BA300DCE550F4FFEF2401FF7E00A2
:011BAE002214
:101D5F00121EC57F0512000E121E357F0512000ED2
:101D6F007F20121FAE7F08121FAE7F01121DE57F6D
:041D7F000502000E4B
:101EC500D2917F0112000EC2917F0212000ED291B3
:051ED5007F0102000E78
:101E3500C2907FFF121E4E7FFF121E4E7FFF121EA5
:091E45004E7FFF121E4ED29022C6
:101E4E00E4FEEF30E704D2928002C292C293EF25F5
:081E5E00E0FFD2930EBE08EA7A
:011E66002259
:101D1600AE71AD70780812082B8F728E718D708C33
:011D26006F4D
:101D2700E4FFFEC293EF25E0FF3094010FD2930E3C
:031D3700BE08F0F3
:011D3A002286
:081FAE00C290121E4ED29022D7
:101CC7008F6E8E6D8D6C8C6BC29078101208181207
:101CD7001E4EAF6EAE6DAD6CAC6B78081208181265
:0A1CE7001E4EAF6E121E4ED2902268
:071FB600C290121D27D2901A
:011FBD002201
:101E6700C290121D27AD07ED7D00FC121D27ED2F37
:081E7700FDE43CD290FEAF0532
:011E7F002240
:101A7E00C290121D27E48F72F571F570F56FAC6F81
:101A8E00121D16E4FCFDFEE5722FF572EE3571F5B2
:101A9E0071ED3570F570EC356FF56FAF72FC121D90
:101AAE0016E4FCFDFEE5722FF572EE3571F571ED63
:101ABE003570F570EC356FF56FD290AF72AE71ADCB
:021ACE0070FCAA
:011AD00022F3
:031DA600121FAE5B
:101DA900E4FFFE30950B0FBF00010EBE1FF5BF40CB
:0D1DB900F2C3EF9440EE941F4003121E355C
:011DC60022FA
:101C2800EF24F0601624F0601224C06013146010D2
:101C380024F1600C1460092471701E751A08800361
:101C4800751A18121FAEE51AAF19B40803021FAEB1
:091C5800AE18AD17AC16121CC742
:011C61002260
:021A11008F65DF
:101A1300E56524F0601624F0601224C0601314609E
:101A23001024F1600C1460092471700A7566088033
:101A33000C756618800774FFFFFEFDFC22E5654404
:101A430008FF121FAEE566B4100A121E67E48F6A20
:101A53008E69800DE566B4080E121FB6E48F6AF531
:101A630069F568F567800B121A7E8F6A8E698D6837
:0A1A73008C67AF6AAE69AD68AC671E
:011A7D002246
:101DE5008F3FE53FB401047F108007E53FB4020A49
:0B1DF5007F11121FAE7F46121DA622B8
:101E00008F1FE51FB401047F108007E51FB4020A8D
:0B1E10007F11121FAE7F86121DA6225C
:101DC7008F73E573B401047F108007E573B4020DC8
:0E1DD7007F11121FAE7FC6121FAE121DA92271
:021C62008F3FB2
:101C6400E4F541F542F540121DA9E53FB401047FB6
:101C7400388007E53FB402057F39121FAE121E6794
:101C84008E418F420540E540C3940340DAAE41AF34
:011C9400420D
:011C9500222C
:031F9500017400D4
:03002300021FC1F8
:011FC10032ED
:101E800053877F75985053890F438920758BFD7553
:091E90008DFDC2ABD28ED2992265
:101E1B00E5747012BF0A083099FDC29975990D309F
:0A1E2B0099FDC2998F99E4F5742225
:0A1F99003098FDAF99C298757401ED
:011FA300221B
:10002600EC4D6011E8497017ED33EC3304600DE4D4
:10003600FCFFFEFD22E933E8330470F802023F12AA
:10004600020A58046009E4CC2481500628500902AB
:100056000249284003020246C0E0EB4A7044B980D8
:1000660006D0E0FB020235EF4E701CBD8008EBFFA8
:10007600EAFEE9FD80EBE98DF0A4FEE5F002010F52
:10008600E9CDF9EAFEEBFFEF89F0A4FCE5F0CE89B5
:10009600F0A42EFFE435F0CD89F0A42DFEE435F072
:1000A6008067EF4E7005BD80D780C3EF8BF0A4ACA0
:1000B600F0EE8BF0A42CFCE435F0F8EF8AF0A42CDB
:1000C600E5F038FCE433CB8DF0A42CFCE5F03BF8EE
:1000D600EE8AF0A42CFCE5F038F8E433CF89F0A4DE
:1000E6002CFCE5F038CF3400CE89F0A42FFFE5F0E4
:1000F6003EFEE433C98DF0A42EFEE5F039CD8AF03C
:10010600A42FFFE5F03EFEE43DFD33D0E0FB5007B3
:100116000BBB000F020249EC2CFCEF33FFEE33FE63
:06012600ED33FD02022191
:10012C00020249EC5D046005E85904700302023FC9
:10013C0012020A580460F6EC4860F2EC7004FDFE02
:10014C00FF22C860DB2481C85009C39860025006A6
:10015C000202469850CAF582E9294B4A7005AB82D7
:10016C0002023575F0007C1A7880C3EF9BEE9AED95
:10017C0099400DC3EF9BFFEE9AFEED99FDE842F01E
:10018C00DC23ACF0D0E0FFD0E0FED0E0FDAB822071
:10019C00E7101BEB60BAEC2CFCEF33FFEE33FEEDFB
:1001AC0033FD020221E803F830E705C0F075F000DA
:1001BC00EF2FFFEE33FEED33FD40B830E7C280AADF
:1001CC0075F020800E75F010800575F0087D007EAE
:1001DC00007F003392D530D50312080AEC3340105F
:1001EC00EF33FFEE33FEED33FDEC33FCD5F0ED22B7
:0E01FC00E5F0247EA2D513CC92E7CDCEFF22F3
:1008EB00E560244CF8E60560227849300702784C25
:1008FB00E475F00112088102070C2000EB7F2ED269
:10090B00008018EF540F2490D43440D4FF30040BE4
:10091B00EF24BFB41A0050032461FFE56160021598
:10092B00610564E5647002056330070D7849E47571
:10093B00F001120881EF020752021E1B7403D2074B
:10094B008003E4C207F5608B498A4A894BE4F56161
:10095B00F563F564E56160077F2012092680F57564
:10096B0062FFC201C200C202C203C205C206C208B4
:10097B001208F4FF700D3007057F00120937AF64C2
:10098B00AE6322B4255FC2D5C2041208F4FF24D093
:10099B00B40A00501A75F00A786130D50508B6FF15
:1009AB000106C6A426F620D5047002D20380D924F2
:1009BB00CFB41A00EF5004C2E5D204020C24D201CA
:1009CB0080C6D20080C0D20280BCD2D580BAD205FC
:1009DB0080B47F201209262002077401B561004004
:1009EB00F11208EBFF12092602095FD208D206802A
:1009FB00951208EBFB1208EBFA1208EBF94A4B7055
:100A0B0006791B7A0D7BFF20022EE561602A7E00A2
:100A1B008E8275830012072560060EEE656270F0FC
:100A2B00C2D5EBC0E0EAC0E0E9C0E0EE120C84D026
:100A3B00E0F9D0E0FAD0E0FB12070CFF60AAEBC0A4
:100A4B00E0EAC0E0E9C0E0120926D0E02401F9D0C9
:100A5B00E03400FAD0E0FBE5620460DCD562D980BB
:100A6B0087D20280A2120C6760F7E5627001041254
:100A7B000427A962600DE562600914F562120D0E80
:100A8B00EF60F3EA30E702F404C3995077EAF425F8
:100A9B00620430E701E404F562800D120C6760C15B
:100AAB00EA05622562120427EA785FF630E701E473
:100ABB00256204D5620420050114120C84E4C0E005
:100ACB00120D0E785FE6601320E70714F612090E7D
:100ADB00802204F6D0E014C0E07F0012090EE5621C
:100AEB0060071209051562800B300503120905D04A
:100AFB00E002095FD0E00480C5120C6760A0E562DC
:100B0B0004120427785FEAF6E5622005026001040F
:050B1B002404120C840B
:100B200074FF04C0E0120D0E12090EE562200502EA
:100B30006003120905D0E0B562E87F451209187814
:100B40005FE67F2B30E7047F2DF404C0E012092616
:100B5000D0E075F00A84C0F012090FD0E012090F3E
:100B600002095F791080027908C206C2088008D2A3
:100B7000D5790A8004790AC2D5E562047002F5626B
:100B8000E4FAFDFEFF1208EBFC7B082001131208BB
:100B9000EBFD7B1030000A1208EBFE1208EBFF7B26
:100BA00020EC3382D592D55013C3E43000069FFF6A
:100BB000E49EFEE42001039DFDE49CFCE4CBF8C22E
:100BC00001EC700CCFCECDCCE824F8F870F3801790
:100BD000C3EF33FFEE33FEED33FDEC33FCEB33FBC1
:100BE000994002FB0FD8E9EB300105F8D0E0C4488A
:100BF000B201C0E00AEC4D4E4F78207B0070C2EA93
:100C0000B5620040BCC0E0120C86D0F0D0E02001FC
:100C100004C4C0E0C4B201C0F012090FD0F0D5F096
:100C2000EB02095F1208A109FC530B635809CD4C74
:100C300009C9420B674F0B6F440B6F4909E2430B25
:100C400075550AA6460B04450A70470D3B5009D15D
:100C50002D09D52E09F82B09D92309F6200D242AB0
:100C6000099148000009F0E562B4FF0375620612BD
:100C700008EBFC1208EBFD1208EBFE1208EBFF7804
:100C800058020456790AA2D5200314300509B91078
:100C9000020404B9080104A2D52006025001042070
:100CA00002689202B561005034C0E07F2030031921
:100CB0007F30A20272067205500F120CDDC202C212
:100CC00006C205C2087F30800F300503E9C0E0127C
:100CD0000926300503D0E0F9D0E0B561CC30051726
:100CE0007F30B9100C1209267F583004077F7880B6
:100CF00003B908031209263002057F2D0209267F59
:100D0000202008F87F2B2006F322920280CF7F005C
:100D1000B4070050052458F8E6FF22286E756C6C65
:100D20002900D2011208EB3001F8C201786130D5F8
:100D30000108F60209912D504349581208EB24038B
:100D4000B405004001E4900D3693120917743A126D
:0A0D50000917D203756104020B635A
:10111800E55430030104F823282442F822783F30AC
:1011280003027842E475F00112088102070C60ECB2
:10113800C5587002155714C558200304FF0200064D
:10114800783F74FFF5F0020891FF021F01E5556032
:1011580006D555037F002220030F121F6AEF60088F
:101168000558E5587002055722783F12087812078B
:101178000CFF60E9783FE475F00112088180DE1207
:10118800115FEFC0E0121151D0E040F380A0D2030C
:101198008002C2038B3F8A408941E4F556F554F535
:1011A80057F558755500C202C200C201C204121197
:1011B80025FF7005AF567E0022B42530121125FF99
:1011C80024D0B40A00500C75F00AC555A42555F56D
:1011D8005580E924CFB41A00EF5002C2E502143357
:1011E800D20180D8D20080D4D20480D0EF1211511D
:1011F8005008121187EF600E80A9EFC0E012115F4E
:10120800D0E06F609EEF607412113680A712115FF4
:10121800EF6069E55570070555800312115FEF60AF
:101228001420040E121118E475F001120881EF124F
:101238000752D555E62004040554055680BA121104
:1012480055EFC0E0121151D0E05004121136E4FFFE
:1012580020040E121118E475F001120881EF12072C
:1012680052EF70DA20040405540556808BE555606A
:10127800020555121187121155EF70C6300304E4A8
:10128800121136E55660030211BC7EFF7FFF22E58E
:101298005560020555121187D206D205121155EF75
:1012A80030060260D7C0E0121136D0E0AC59AD5A12
:1012B800AE5BAF5C1216C68C598D5A8E5B8F5C5034
:1012C8000712115FC20580D42004102005020556BC
:0812D8001211181208780554E8
:1012E00012083E0211ABD0E0809A7900800A791092
:1012F000800679088002790AD205E5556002055515
:10130000E9C0E0121187EF60DD12115FBF2D04D23A
:10131000028003BF2B09121187EF60CA121155D04A
:10132000E0B40A028033B40802802EBF3027700276
:101330007408C205C0E0121155D0E0BF78028003E6
:10134000BF58160555D555028007D55504D20580DE
:101350000B741080197002740ABF000AEFF8E4FCE5
:10136000FDFEFF0213E6C0E0EF121136D0E0F9E413
:10137000FCFDFEFFE9C0E0ECC0E0EDC0E0EEC0E047
:10138000EFC0E0121155EFF8D0E0FFD0E0FED0E062
:10139000FDD0E0FCD0F0E8604DB461004007B47BC4
:1013A000005002C2E524D0503DFA24F6500724F93B
:1013B0005034240AFAEAB5F000502BCFA9F0A42F3C
:1013C000FF92D5E9C5F0CEA4A2D53EFE92D5E9C5DF
:1013D000F0CDA4A2D53DFD92D5E9C5F0CCA4A2D50F
:1013E0003CFCC205808EE8C0E020042A20050805E8
:1013F0005630020312080A121118120878055420F8
:10140000000B20010DEE8FF012079C800912083EA0
:101410008004EF120752D0E01211360211AB200403
:10142000101211181208780554E5578558F0120764
:101430009C80E81208A112755312EE5811EC4C1161
:10144000E84211C44812F24F12F64412154312EA50
:101450004912F65512974612974512974711F02AEE
:07146000141E4E000011F400
:10159C008F428E418D408C3FE4FFFE7D807C3FABC3
:1015AC0042AA41A940A83F1203667009AF42AE415E
:1015BC00AD40AC3F22AF42AE41AD40AC3F12025405
:1015CC00FBAF46AE45AD44AC43120254FFBF01081D
:1015DC00E4FFFE7D807C3F22EF64046022EB640418
:1015EC00601DBB0127E4FFFEFDFCAB46AA45A944E8
:1015FC00A84312036660084006E4FFFEFDFC22745B
:10160C00FFF546F545F544F5430216AAE4F547F512
:10161C0048FFFEFDFCAB42AA41A940A83F1203665D
:10162C00504BAF46AE45AD44AC431203F08E478FE2
:10163C0048AC47AD48EC1201D1C8ECC8C9EDC9CAD9
:10164C00EECACBEFCBAF46AE45AD44AC4312027104
:10165C00E4FBFAF9F812036670A5AF42AE41AD4057
:10166C00AC3F1203DF8F428E418D408C3FAF42AEB8
:10167C0041AD40AC3F12149BAB46AA45A944A843CC
:10168C001200261218B18F468E458D448C43E548C6
:10169C0030E00B1203DF8F468E458D448C43AF46F2
:0716AC00AE45AD44AC432242
:10020A00E9D2E7C933E833F892D5EDD2E7CD33EC3A
:07021A0033FC5002B2D522B3
:10022100EC30E7100FBF000C0EBE00080DBD00043E
:100231000BEB6014A2D5EB13FCED92E7FD2274FFEA
:10024100FCFDFEFF22E480F8A2D574FF13FC7D8043
:03025100E480EF57
:10025400ED33EC33601004700FED547F70057402BD
:0A02640092E0227404220422E42236
:10026E0002023FE86480F8E933E83360110460F07D
:10027E00ED33EC337009E8FCE9FDEAFEEBFF2204F6
:10028E0060DED3EB9FEA9EE99DE8C2E78CF0C2F7F1
:10029E0095F0400CE8CCF8E9CDF9EACEFAEBCFFBBD
:1002AE0012020A85D0F05804700320D5B3E804700A
:1002BE00075002B2D502024992D5EC0460F7E4CCA5
:1002CE00C0E0C398F8603B94186008400DD0E0FB86
:1002DE00020221E4FBFAC9FC8028E830E406E4C9F6
:1002EE00FBE4CAFCE830E305E4C9CACBFCE85407DA
:1002FE006010F8C3E913F9EA13FAEB13FBEC13FCE5
:10030E00D8F130F52FC3E49CFCEF9BFFEE9AFEED87
:10031E0099FDD0E0FBEF4E4D4C701222DB03020232
:10032E0046EC2CFCEF33FFEE33FEED33FDED30E704
:10033E00EB020221EF2BFFEE3AFEED39FDD0E0FB92
:10034E0050130BBB0003020249ED13FDEE13FEEF3B
:08035E0013FFEC13FC02022165
:1003660074F8CC6480CCC86480C8F58204604FC33E
:10037600EB9FF5F0EA9E42F0E99D42F0E89C45F0DD
:10038600603C501DE5825FFFE582D313CB5BCBF467
:100396002B5582FB50280ABA002409B90020088090
:1003A6001DE5825BFBE582D313CF5FCFF4C3132F2A
:1003B6005582FF50090EBE00050DBD00010CC3EBB2
:1003C6009FF5F0EA9E42F0E99D42F0E89C45F06018
:0903D60007CC4820E701B3EC223A
:1003DF00ED33EC33600A047003BD8004ECB2E7FC2C
:0103EF0022EB
:1003F000EDD2E7CD33EC3392D524814006E4FFFE05
:10040000FDFC22FCE4CFCECDCC24E0501174FF8063
:10041000EDC3CC13CCCD13CDCE13CECF13CF047000
:07042000F030D5DE02080AEE
:10042700F920E72824F950037907E4F42402FB189C
:10043700DBFDE624FB5014E9600DE4F618E604F64C
:0F044700B40A08E4F6D9F57401F60A22C2D522E8
:10045600ED33EC3392D5FA602AB4FF33EDC2E77B75
:10046600FF60067A04797BE4227A04798420D50435
:100476007A04797F224E614E002B494E46002D4963
:100486004E4600E47A08F608DAFC7B00740722E898
:10049600C0E0ECC0E0EDC0E0EEC0E0EFC0E0EA7521
:1004A600F010A4CAABF075F04DA42BFBE435F0FCBC
:1004B600EA2410FAEB34C5FBEC34D9FCEDC2E7FFB5
:1004C60075F056A4F42411C5F0F434C58FF0A42AAF
:1004D600E5F03BE43CF620E714120589D0E0FFD0B6
:1004E600E0FED0E0FDD0E0FC12012F8014F40412EF
:1004F6000589D0E0FFD0E0FED0E0FDD0E0FC1200A0
:1005060026D0E0F8E6FAEDD2E7CD33EC332482FBD1
:10051600E4C3CF33CFCE33CECD33CD33DBF37B073E
:1005260075F00A846004F6081B0AE5F0F6088FF0F9
:10053600740AA4FFACF08EF0740AA42CFEACF05042
:10054600010C8DF0740AA42CFDE435F0F608DBDE10
:0305560074072205
:1016B300C207C208C209C20AF9E4F55DF55EFCFD82
:1016C300FEFFE91006EA20090CB42D04D209D32247
:1016D300B42B02D32224D0504794095041240A301A
:1016E3000A15F8855EF0740AA42872E74051C5F024
:1016F300704D85F05ED322D208C0E0E4FBFA792076
:101703007841120026ECF8EDF9EEFAEFFBD0E0FC9D
:10171300E41201D61202753007B4155DD322240AF0
:10172300200A20B4FE0720071AD207D32224EB6035
:101733000424E0700EA2099207D20AC209D322C37D
:1017430002023FE4300A0BE55E300902F404A2070B
:1017530092093008EA255D20D2E5A2E7920A5002F9
:10176300F404B4260050D8CCC0E0EDC0E0EEC0E0F5
:10177300EFC0E0EC120589D0E0FFD0E0FED0E0FD41
:10178300D0E0FC200A05120026800312012F300945
:06179300031203DFC32274
:1018790033DA929E35B16011377FE5FE39218489CB
:101889003AAEC3FF3C1D955B3D6358473E75FDF07D
:101899003F3172183F800000C2D502024902023F5F
:1018A900BD80FA50F3020246ED33EC330460F17B5C
:1018B9003B7AAA79B8783F120026ED33EC3392D5FA
:1018C900247B5011A2D570DB500BED4480240450C9
:1018D90004A2D580CEEFFBEEFAEDF9ECF81203F095
:1018E900EFF582F404FC1201D6120275C082901839
:1018F9007974091205D8ED33CC33D0F092D525F09F
:0A190900A2D57001C313CC13FD2218
:101467003E9248DA3ECCCCCD3F2AAAAB40000000E2
:101477003F8000003F9837F03FB504F33FD744FC67
:101487003E3172173EB172173F0515913EDE5BD9AB
:10149700D2008002C200EDD2E7F8CD33EC330470FE
:1014A7000BBD800592D502024902023F40FBD314CF
:1014B70060F2F5F07C3FEE7A00C39496C8948B40B7
:1014C700230AC89469C8941A401A0AC89468C89429
:1014D7001F40110AC8945AC89425400805F07A009D
:1014E700CDC2E7CDC0F08C498D4A8E4B8F4CEA2395
:1014F70023C0E02477F582E43414F58312086812D8
:101507000275ECC0E0EDC0E0EEC0E0EFC0E012080D
:1015170058A849A94AAA4BAB4C120271D0E0FBD09C
:10152700E0FAD0E0F9D0E0B2E7F812012F8C498D4C
:101537004A8E4B8F4C90146774031205C9A849A9AA
:101547004AAA4BAB4C120026D0E0600F2483F582E9
:10155700E43414F5831208681202758C498D4A8E9B
:101567004B8F4CD0E0C3947FFDE49400FC1201D173
:101577007B187A727931783F120026A849A94AAABE
:101587004BAB4C12027530000B7BD97A5B79DE7856
:051597003E12002622B7
:100559003F8000004120000042C80000447A0000AA
:10056900461C400047C35000497424004B1896802C
:100579004CBEBC205A0E1BCA6753C21C749DC5AE23
:10058900FB60065407601C23231205B7EB5438603F
:10059900091205A31205B2120026ECF8EDF9EEFADC
:1005A900EFCB22EB1205B280F1543803241C9005DD
:1005B90059FE93FC0EEE93FD0EEE930ECE93FF22A1
:1005C900C0E0EFFBEEFAEDF9ECF8120026D0E0F509
:1005D900F0EFFBEEFAEDF9ECF8120858A3A3A3A388
:1005E900E8C0E0E9C0E0EAC0E0EBC0E0C0F012001A
:1005F90026120868A3A3A3A3120275D0F0D0E0FBCA
:0D060900D0E0FAD0E0F9D0E0F8D5F0D4222E
:03000000021913CF
:0C191300787FE4F6D8FD75817502195A42
:10061600E709F608DFFA8046E709F208DFFA803EC6
:1006260088828C83E709F0A3DFFA8032E309F608B3
:10063600DFFA8078E309F208DFFA807088828C831B
:10064600E309F0A3DFFA806489828A83E0A3F608CF
:10065600DFFA805889828A83E0A3F208DFFA804CA9
:1006660080D280FA80C680D4806980F28033801080
:1006760080A680EA809A80A880DA80E280CA8033E9
:1006860089828A83ECFAE493A3C8C582C8CCC58361
:10069600CCF0A3C8C582C8CCC583CCDFE9DEE78031
:1006A6000D89828A83E493A3F608DFF9ECFAA9F0B0
:1006B600EDFB2289828A83ECFAE0A3C8C582C8CC06
:1006C600C583CCF0A3C8C582C8CCC583CCDFEADE1F
:1006D600E880DB89828A83E493A3F208DFF980CC81
:1006E60088F0EF60010E4E60C388F0ED2402B4047A
:1006F6000050B9F582EB2402B4040050AF23234521
:06070600822390066673D9
:10070C00BB010689828A83E0225002E722BBFE02EB
:09071C00E32289828A83E493221E
:10072500BB010CE58229F582E5833AF583E0225089
:1007350006E92582F8E622BBFE06E92582F8E222D3
:0D074500E58229F582E5833AF583E49322ED
:10075200BB010689828A83F0225002F722BBFE0186
:02076200F32280
:10076400BB0110E58229F582E5833AF583E0F5F0D3
:10077400A3E0225009E92582F886F008E622BBFEB0
:100784000AE92582F8E2F5F008E222E5832AF583F6
:08079400E993F5F0A3E99322BB
:10079C00BB010A89828A83F0E5F0A3F0225006F7A8
:0F07AC0009A7F01922BBFE06F3E5F009F31922A5
:1007BB00E88FF0A4CC8BF0A42CFCE98EF0A42CFCDD
:1007CB008AF0EDA42CFCEA8EF0A4CDA8F08BF0A45B
:1007DB002DCC3825F0FDE98FF0A42CCD35F0FCEBBA
:1007EB008EF0A4FEA9F0EB8FF0A4CFC5F02ECD397F
:0F07FB00FEE43CFCEAA42DCE35F0FDE43CFC22EC
:0E080A00C3E49FFFE49EFEE49DFDE49CFC22FF
:10081800E8600FECC313FCED13FDEE13FEEF13FFBE
:03082800D8F122E2
:10082B00E8600FEFC333FFEE33FEED33FDEC33FC2B
:03083B00D8F122CF
:10083E00BB010789828A830208D35005E9F80208B2
:0A084E00C7BBFE05E9F80208DF222F
:10085800E493FC740193FD740293FE740393FF22E6
:10086800E493F8740193F9740293FA740393FB22E6
:09087800E6FB08E6FA08E6F922A5
:10088100FAE6FB0808E6F925F0F618E6CA3AF62278
:10089100FAE6FB0808E625F0F9F618E63AFAF62238
:1008A100D083D082F8E4937012740193700DA3A3E6
:1008B10093F8740193F5828883E4737402936860FA
:0608C100EFA3A3A380DFFA
:101F6A00100C0B121F99BF0D027F0A021E1BAF75C0
:011F7A002244
:050006008F75D20C22F1
:101F0100EFC394094005EF940E4003BF2003D38033
:031F110001C322E7
:10191F00020D5AE493A3F8E493A34003F68001F277
:10192F0008DFF48029E493A3F85407240CC8C333C9
:10193F00C4540F4420C8834004F456800146F6DF98
:10194F00E4800B0102040810204080901F8BE47E7E
:10195F00019360BCA3FF543F30E509541FFEE4938D
:10196F00A360010ECF54C025E060A840B8E493A354
:10197F00FAE493A3F8E493A3C8C582C8CAC583CA7F
:10198F00F0A3C8C582C8CAC583CADFE9DEE780BE37
:011F98000048
:0C08C700ECF608EDF608EEF608EFF6225D
:0C08D300ECF0A3EDF0A3EEF0A3EFF02298
:0C08DF00ECF208EDF208EEF208EFF22255
:00000001FF
