:100F3C007580FFC2A4D2A5C2A600D2A6E58033223A
:100EF800120F3C40FBC2A4C2A5D2A68F8000C2A696
:010F080022C6
:100F0900120F3C40FBD2A4C2A5D2A68F8000C2A674
:010F190022B5
:0A0F58007F01120EF87F05020EBCA7
:100CAB007F38120EF87F05120EBC7F38120EF87FBC
:100CBB0005120EBC7F38120EF87F08120EF87F015A
:100CCB00120EF87F06120EF81F120EBC7F0C020ECE
:010CDB00F820
:100D8100AE07ED7005EE24808003EE24C0FF120E45
:100D9100F81204EEFF600C120F09740129F9E43A0C
:040DA100FA80EE22C4
:100EA600D2A100D2A00000000000C2A100000000F4
:060EB60000C2A0000022B2
:100EE600C2A100D2A00000000000D2A100000000B4
:020EF6000022D8
:100BFE00C209E4FEEFA806088002C333D8FC30E732
:100C0E0004D2A18002C2A100D2A00000000000C246
:100C1E00A00EBE08DF0000D2A10000D2A00000008E
:0E0C2E0030A104C2098002D209C2A000A209AE
:010C3C002295
:100D3700E4FFD2A1FE00C2A0000000000000D2A084
:100D47000000EF25E0FF30A1010F00000EBE08E50F
:040D5700C2A0000036
:010D5B002275
:100F1A00C2A1000000D2A00000000000C2A0000090
:010F2A0022A4
:100F2B00D2A1000000D2A00000000000C2A000006F
:010F3B002293
:0A0B62008F088D098B0A8A0B890C9D
:100B6C00E4F50EE50EC3950D503C120EA6AF08121F
:100B7C000BFE400122AF09120BFE400122AB0AAA68
:100B8C000BA90C1204EEFF120BFE400122120EE612
:100B9C007F01120EBC7401250CF50CE4350BF50B22
:070BAC000509050E80BDD311
:010BB300221F
:020BB400AC078C
:100BB600120EA6120BFE400122AF05120BFE4001DB
:100BC60022EC04FF120BFE400122E4FDE51414FFA3
:100BD600EDC39F5014120D37EF120534120F1A741D
:100BE6000129F9E43AFA0D80E3120D37EF120534C4
:070BF600120F2B120EE6D3D3
:010BFD0022D5
:100CDC00434831203D20253034582C202825372EF0
:100CEC003566292056200920434832203D202530E6
:100CFC0034582C202825372E3566292056200D0AED
:010D0C0000E6
:100A1F00120E8F120DA57F01120E0E7F02120E0EF7
:100A2F007F01120C778E228F237F02120C778E2478
:100A3F008F2585222985232AAC22AD23E41201D1EB
:100A4F00E4FBFA79A078401200267B007AFF797FC9
:100A5F00784712012F8F2E8E2D8D2C8C2B85242FC6
:100A6F00852530AC24AD25E41201D1E4FBFA79A041
:100A7F0078401200267B007AFF797F784712012F8A
:100A8F008F348E338D328C317BFF7A0C79DC1206EA
:030A9F0012808D35
:030F8E00DFFE2261
:100EBC00AE07AF061EEF600C7FF5120F8E7FF5129A
:050ECC000F8E80EE22F4
:100DA500120ED17F05120EBC120E447F05120EBC29
:100DB5007F20120F627F08120F627F01120E0E7FD5
:040DC50005020EBC59
:100ED100D2917F01120EBCC2917F02120EBCD2913F
:050EE1007F01020EBCC0
:100E4400C2907FFF120E5D7FFF120E5D7FFF120EB8
:090E54005D7FFF120E5DD29022B9
:100E5D00E4FEEF30E704D2928002C292C293EF25F6
:080E6D00E0FFD2930EBE08EA7B
:010E7500225A
:100D5C00AE4BAD4A78081205678F4C8E4B8D4A8C82
:010D6C00493D
:100D6D00E4FFFEC293EF25E0FF3094010FD2930E06
:030D7D00BE08F0BD
:010D80002250
:080F6200C290120E5DD2902234
:100D0D008F1E8E1D8D1C8C1BC290781012055412D7
:100D1D000E5DAF1EAE1DAD1CAC1B78081205541236
:0A0D2D000E5DAF1E120E5DD2902283
:070F6A00C290120D6DD29040
:010F7100225D
:100E7600C290120D6DAD07ED7D00FC120D6DED2FCC
:080E8600FDE43CD290FEAF0533
:010E8E002241
:100B0F00C290120D6DE48F4CF54BF54AF549AC4987
:100B1F00120D5CE4FCFDFEE54C2FF54CEE354BF56C
:100B2F004BED354AF54AEC3549F549AF4CFC120D02
:100B3F005CE4FCFDFEE54C2FF54CEE354BF54BED33
:100B4F00354AF54AEC3549F549D290AF4CAE4BAD2D
:020B5F004AFC4E
:010B61002271
:030DED00120F6280
:100DF000E4FFFE30950B0FBF00010EBE1FF5BF4094
:0D0E0000F2C3EF9440EE941F4003120E4425
:010E0D0022C2
:100C3D00EF24F0601624F0601224C06013146010CD
:100C4D0024F1600C1460092471701E751A0880035C
:100C5D00751A18120F62E51AAF19B40803020F6264
:090C6D00AE18AD17AC16120D0D06
:010C7600225B
:020AA2008F4380
:100AA400E54324F0601624F0601224C0601314603F
:100AB4001024F1600C1460092471700A75440880D4
:100AC4000C754418800774FFFFFEFDFC22E54344C7
:100AD40008FF120F62E544B4100A120E76E48F4840
:100AE4008E47800DE544B4080E120F6AE48F48F572
:100AF40047F546F545800B120B0F8F488E478D4600
:0A0B04008C45AF48AE47AD46AC4546
:010B0E0022C4
:100E0E008F26E526B401047F108007E526B4020A7A
:0B0E1E007F11120F627F46120DED22C3
:100E29008F1FE51FB401047F108007E51FB4020A74
:0B0E39007F11120F627F86120DED2268
:100003008F50E550B401047F108007E550B4020D12
:0E0013007F11120F627FC6120F62120DF022D3
:020C77008F26C6
:100C7900E4F528F529F527120DF0E526B401047FDE
:100C8900388007E526B402057F39120F62120E7605
:100C99008E288F290527E527C3940240DAAE28AFAD
:010CA9002921
:010CAA002227
:03002300020021B7
:0100210032AC
:080F72008F993099FDC299220C
:070F7A003098FDAF99C29809
:010F8100224D
:100DC9008B4D8A4E894FAF051DEF6017AB4D054F0F
:100DD900E54FAA4E7002054E14F91204EEFF120FE8
:040DE9007280E3220F
:100E8F0053877F75985053890F438920758BFD7554
:070E9F008DFDC2ABD28E22D3
:080F82008F42120F72AF4222F0
:040F8A00120F7A22A6
:10002600EC4D6011E8497017ED33EC3304600DE4D4
:10003600FCFFFEFD22E933E8330470F802023F12AA
:10004600020A58046009E4CC2481500628500902AB
:100056000249284003020246C0E0EB4A7044B980D8
:1000660006D0E0FB020235EF4E701CBD8008EBFFA8
:10007600EAFEE9FD80EBE98DF0A4FEE5F002010F52
:10008600E9CDF9EAFEEBFFEF89F0A4FCE5F0CE89B5
:10009600F0A42EFFE435F0CD89F0A42DFEE435F072
:1000A6008067EF4E7005BD80D780C3EF8BF0A4ACA0
:1000B600F0EE8BF0A42CFCE435F0F8EF8AF0A42CDB
:1000C600E5F038FCE433CB8DF0A42CFCE5F03BF8EE
:1000D600EE8AF0A42CFCE5F038F8E433CF89F0A4DE
:1000E6002CFCE5F038CF3400CE89F0A42FFFE5F0E4
:1000F6003EFEE433C98DF0A42EFEE5F039CD8AF03C
:10010600A42FFFE5F03EFEE43DFD33D0E0FB5007B3
:100116000BBB000F020249EC2CFCEF33FFEE33FE63
:06012600ED33FD02022191
:10012C00020249EC5D046005E85904700302023FC9
:10013C0012020A580460F6EC4860F2EC7004FDFE02
:10014C00FF22C860DB2481C85009C39860025006A6
:10015C000202469850CAF582E9294B4A7005AB82D7
:10016C0002023575F0007C1A7880C3EF9BEE9AED95
:10017C0099400DC3EF9BFFEE9AFEED99FDE842F01E
:10018C00DC23ACF0D0E0FFD0E0FED0E0FDAB822071
:10019C00E7101BEB60BAEC2CFCEF33FFEE33FEEDFB
:1001AC0033FD020221E803F830E705C0F075F000DA
:1001BC00EF2FFFEE33FEED33FD40B830E7C280AADF
:1001CC0075F020800E75F010800575F0087D007EAE
:1001DC00007F003392D530D503120546EC33401026
:1001EC00EF33FFEE33FEED33FDEC33FCD5F0ED22B7
:0E01FC00E5F0247EA2D513CC92E7CDCEFF22F3
:1005B000E53D2429F8E6053D227826300702782912
:1005C000E475F00112057A0204EE2000EB7F2ED2D2
:1005D000008018EF540F2490D43440D4FF30040B23
:1005E000EF24BFB41A0050032461FFE53E600215FA
:1005F0003E0541E5417002054030070D7826E4755F
:10060000F00112057AEF020534020F827403D2075B
:100610008003E4C207F53D8B268A278928E4F53E4E
:10062000F540F541E53E60077F201205EB80F5754A
:100630003FFFC201C200C202C203C205C206C20815
:100640001205B9FF700D3007057F001205FCAF41A0
:10065000AE4022B4255FC2D5C2041205B9FF24D032
:10066000B40A00501A75F00A783E30D50508B6FF76
:100670000106C6A426F620D5047002D20380D92430
:10068000CFB41A00EF5004C2E5D2040208E9D20147
:1006900080C6D20080C0D20280BCD2D580BAD2053A
:1006A00080B47F201205EB2002077401B53E0040A4
:1006B000F11205B0FF1205EB020624D208D2068023
:1006C000951205B0FB1205B0FA1205B0F94A4B704D
:1006D0000679E07A097BFF20022EE53E602A7E0043
:1006E0008E8275830012050760060EEE653F70F07E
:1006F000C2D5EBC0E0EAC0E0E9C0E0EE120949D0A3
:10070000E0F9D0E0FAD0E0FB1204EEFF60AAEBC003
:10071000E0EAC0E0E9C0E01205EBD0E02401F9D046
:10072000E03400FAD0E0FBE53F0460DCD53FD9803F
:1007300087D20280A212092C60F7E53F70010412F3
:100740000254A93F600DE53F600914F53F1209D33B
:10075000EF60F3EA30E702F404C3995077EAF42536
:100760003F0430E701E404F53F800D12092C60C11D
:10077000EA053F253F120254EA783CF630E701E4EF
:10078000253F04D53F0420050114120949E4C0E0C7
:100790001209D3783CE6601320E70714F61205D35C
:1007A000802204F6D0E014C0E07F001205D3E53FBC
:1007B00060071205CA153F800B3005031205CAD029
:1007C000E0020624D0E00480C512092C60A0E53FB9
:1007D00004120254783CEAF6E53F20050260010469
:0507E000240412094988
:1007E50074FF04C0E01209D31205D3E53F200502CA
:1007F50060031205CAD0E0B53FE87F451205DD78F4
:100805003CE67F2B30E7047F2DF404C0E01205EBB6
:10081500D0E075F00A84C0F01205D4D0E01205D4FA
:10082500020624791080027908C206C2088008D21F
:10083500D5790A8004790AC2D5E53F047002F53FEF
:10084500E4FAFDFEFF1205B0FC7B0820011312053A
:10085500B0FD7B1030000A1205B0FE1205B0FF7B1B
:1008650020EC3382D592D55013C3E43000069FFFA8
:10087500E49EFEE42001039DFDE49CFCE4CBF8C26C
:1008850001EC700CCFCECDCCE824F8F870F38017CE
:10089500C3EF33FFEE33FEED33FDEC33FCEB33FBFF
:1008A500994002FB0FD8E9EB300105F8D0E0C448C8
:1008B500B201C0E00AEC4D4E4F78207B0070C2EAD1
:1008C500B53F0040BCC0E012094BD0F0D0E020019C
:1008D50004C4C0E0C4B201C0F01205D4D0F0D5F014
:1008E500EB02062412058A06C15308285806924CC5
:1008F500068E42082C4F08344408344906A743089D
:100905003A55076B4607C9450735470A005006960D
:100915002D069A2E06BD2B069E2306BB2009E92A25
:10092500065648000006B5E53FB4FF03753F0612BD
:1009350005B0FC1205B0FD1205B0FE1205B0FF783A
:1009450035020283790AA2D5200314300509B910AE
:10095500020404B9080104A2D520060250010420AE
:1009650002689202B53E005034C0E07F2030031982
:100975007F30A20272067205500F1209A2C202C28E
:1009850006C205C2087F30800F300503E9C0E012BA
:1009950005EB300503D0E0F9D0E0B53ECC300517C6
:1009A5007F30B9100C1205EB7F583004077F788033
:1009B50003B908031205EB3002057F2D0205EB7F15
:1009C500202008F87F2B2006F322920280CF7F009B
:1009D500B4070050052435F8E6FF22286E756C6CC7
:1009E5002900D2011205B03001F8C201783E30D598
:1009F5000108F60206562D504349581205B0240346
:100A0500B405004001E49009FB931205DC743A1229
:0A0A150005DCD203753E0402082838
:10020A00E9D2E7C933E833F892D5EDD2E7CD33EC3A
:07021A0033FC5002B2D522B3
:10022100EC30E7100FBF000C0EBE00080DBD00043E
:100231000BEB6014A2D5EB13FCED92E7FD2274FFEA
:10024100FCFDFEFF22E480F8A2D574FF13FC7D8043
:03025100E480EF57
:10025400F920E72824F950037907E4F42402FB1871
:10026400DBFDE624FB5014E9600DE4F618E604F621
:0F027400B40A08E4F6D9F57401F60A22C2D522BD
:10028300ED33EC3392D5FA602AB4FF33EDC2E77B4A
:10029300FF60067A0279A8E4227A0279B120D504B4
:1002A3007A0279AC224E614E002B494E46002D490D
:1002B3004E4600E47A08F608DAFC7B00740722E86D
:1002C300C0E0ECC0E0EDC0E0EEC0E0EFC0E0EA75F6
:1002D300F010A4CAABF075F04DA42BFBE435F0FC91
:1002E300EA2410FAEB34C5FBEC34D9FCEDC2E7FF8A
:1002F30075F056A4F42411C5F0F434C58FF0A42A84
:10030300E5F03BE43CF620E7141204AED0E0FFD066
:10031300E0FED0E0FDD0E0FC12012F8014F40412C3
:1003230004AED0E0FFD0E0FED0E0FDD0E0FC120050
:1003330026D0E0F8E6FAEDD2E7CD33EC332482FBA6
:10034300E4C3CF33CFCE33CECD33CD33DBF37B0713
:1003530075F00A846004F6081B0AE5F0F6088FF0CE
:10036300740AA4FFACF08EF0740AA42CFEACF05017
:10037300010C8DF0740AA42CFDE435F0F608DBDEE5
:03038300740722DA
:1003860002023FE86480F8E933E83360110460F064
:10039600ED33EC337009E8FCE9FDEAFEEBFF2204DD
:1003A60060DED3EB9FEA9EE99DE8C2E78CF0C2F7D8
:1003B60095F0400CE8CCF8E9CDF9EACEFAEBCFFBA4
:1003C60012020A85D0F05804700320D5B3E80470F1
:1003D600075002B2D502024992D5EC0460F7E4CC8C
:1003E600C0E0C398F8603B94186008400DD0E0FB6D
:1003F600020221E4FBFAC9FC8028E830E406E4C9DD
:10040600FBE4CAFCE830E305E4C9CACBFCE85407C0
:100416006010F8C3E913F9EA13FAEB13FBEC13FCCB
:10042600D8F130F52FC3E49CFCEF9BFFEE9AFEED6E
:1004360099FDD0E0FBEF4E4D4C701222DB03020219
:1004460046EC2CFCEF33FFEE33FEED33FDED30E7EB
:10045600EB020221EF2BFFEE3AFEED39FDD0E0FB79
:1004660050130BBB0003020249ED13FDEE13FEEF22
:0804760013FFEC13FC0202214C
:10047E003F8000004120000042C80000447A000086
:10048E00461C400047C35000497424004B18968008
:10049E004CBEBC205A0E1BCA6753C21C749DC5AEFF
:1004AE00FB60065407601C23231204DCEB543860F7
:1004BE00091204C81204D7120026ECF8EDF9EEFA70
:1004CE00EFCB22EB1204D780F1543803241C900496
:1004DE007EFE93FC0EEE93FD0EEE930ECE93FF2258
:03000000020F4CA0
:0C0F4C00787FE4F6D8FD758150020A1F82
:1004EE00BB010689828A83E0225002E722BBFE020C
:0904FE00E32289828A83E493223F
:10050700BB010CE58229F582E5833AF583E02250A9
:1005170006E92582F8E622BBFE06E92582F8E222F3
:0D052700E58229F582E5833AF583E493220D
:10053400BB010689828A83F0225002F722BBFE01A6
:02054400F322A0
:0E054600C3E49FFFE49EFEE49DFDE49CFC22C6
:10055400E8600FECC313FCED13FDEE13FEEF13FF85
:03056400D8F122A9
:10056700E8600FEFC333FFEE33FEED33FDEC33FCF2
:03057700D8F12296
:10057A00FAE6FB0808E6F925F0F618E6CA3AF62282
:10058A00D083D082F8E4937012740193700DA3A300
:10059A0093F8740193F5828883E473740293686014
:0605AA00EFA3A3A380DF14
:00000001FF
