:1010FC007580FFC2A4D2A5C2A600D2A6E580332279
:1010B8001210FC40FBC2A4C2A5D2A68F8000C2A613
:0110C8002205
:1010C9001210FC40FBD2A4C2A5D2A68F8000C2A6F2
:0110D90022F4
:0A1127007F011210B87F0502000ED0
:100E5D007F381210B87F0512000E7F381210B87F40
:100E6D000512000E7F381210B87F081210B87F01DE
:100E7D001210B87F061210B81F12000E7F0C021050
:010E8D00B8AC
:100F0200AE07ED7005EE24808003EE24C0FF1210C0
:100F1200B81204EEFF600C1210C9740129F9E43A08
:040F2200FA80EE2241
:10106800D2A100D2A00000000000C2A10000000030
:0610780000C2A0000022EE
:1010A600C2A100D2A00000000000D2A100000000F2
:0210B600002216
:100DB000C209E4FEEFA806088002C333D8FC30E77E
:100DC00004D2A18002C2A100D2A00000000000C293
:100DD000A00EBE08DF0000D2A10000D2A0000000DB
:0E0DE00030A104C2098002D209C2A000A209FB
:010DEE0022E2
:100EB800E4FFD2A1FE00C2A0000000000000D2A002
:100EC8000000EF25E0FF30A1010F00000EBE08E58D
:040ED800C2A00000B4
:010EDC0022F3
:1010DA00C2A1000000D2A00000000000C2A00000CF
:0110EA0022E3
:1010EB00D2A1000000D2A00000000000C2A00000AE
:0110FB0022D2
:0A0D14008F088D098B0A8A0B890CE9
:100D1E00E4F50EE50EC3950D503C121068AF0812A7
:100D2E000DB0400122AF09120DB0400122AB0AAA4C
:100D3E000BA90C1204EEFF120DB04001221210A6E8
:100D4E007F0112000E7401250CF50CE4350BF50B2A
:070D5E000509050E80BDD35D
:010D6500226B
:020D6600AC07D8
:100D6800121068120DB0400122AF05120DB04001FB
:100D780022EC04FF120DB0400122E4FDE51414FF3B
:100D8800EDC39F5014120EB8EF1205341210DA7426
:100D98000129F9E43AFA0D80E3120EB8EF1205348E
:070DA8001210EB1210A6D39C
:010DAF002221
:100C6900726F746174696F6E203D20282531302EB2
:100C79003566292073200A006E6F742064657465D7
:100C8900637465640D0A00434831203D20253034E2
:100C9900582C202825372E3566292056200920432F
:100CA9004832203D20253034582C202825372E3530
:080CB90066292056200D0A00F7
:0A111C00011B00011E00021C000070
:10110C00D2AFD2885389F0438901E4F58CF58A2259
:03000300020F6E7B
:100F6E00C0E0C0D0051BE51BB40213B28C308C035D
:100F7E00751B01208C08C2A8751E01751B00D0D0F0
:030F8E00D0E0327E
:03000B000210934D
:10109300C0E0051DE51D7002051C758A00758C00F6
:0310A300D0E03268
:100A6E00121051120F2612110C7F01120FD07F029D
:100A7E00120FD07F01120E298E228F237F02120EAB
:100A8E00298E248F25D2A8E51E6401706AC2A8F5AE
:100A9E001EF51CF51DAE1CAF1DFCFDFBFA7901F811
:100AAE00120546A804A905AA06AB07AF8CEFFEE413
:100ABE00FCFD2BFBEA3EFAED39F9EC38F8AF8AE48F
:100ACE00FEEB2FFFEE3AFEED39FDEC38FCE41201A1
:100ADE00CC7B717A3D798A783F1200267B007A248E
:100AEE007974784912012F8F2C8E2B8D2A8C297BAD
:100AFE00FF7A0C796980067BFF7A0C798112066188
:100B0E0085222985232AAC22AD23E41201D1E4FBF0
:100B1E00FA79A078401200267B007AFF797F784719
:100B2E0012012F8F2E8E2D8D2C8C2B85242F85250B
:100B3E0030AC24AD25E41201D1E4FBFA79A0784063
:100B4E001200267B007AFF797F784712012F8F34AF
:100B5E008E338D328C317BFF7A0C799012066102C6
:020B6E000A81FA
:03115900DFFE2294
:10000E00AE07AF061EEF600C7FF51211597FF51289
:05001E00115980EE22E3
:100F260012107E7F0512000E1210067F0512000EAB
:100F36007F201211317F081211317F01120FD07FED
:040F46000502000E92
:10107E00D2917F0112000EC2917F0212000ED29108
:05108E007F0102000ECD
:10100600C2907FFF12101F7FFF12101F7FFF12106A
:091016001F7FFF12101FD290226F
:10101F00E4FEEF30E704D2928002C292C293EF2532
:08102F00E0FFD2930EBE08EAB7
:011037002296
:100EDD00AE4FAD4E78081205B68F508E4F8D4E8C9D
:010EED004DB7
:100EEE00E4FFFEC293EF25E0FF3094010FD2930E84
:030EFE00BE08F03B
:010F010022CD
:08113100C29012101FD290229F
:100E8E008F4C8E4B8D4A8C49C29078101205A3124E
:100E9E00101FAF4CAE4BAD4AAC4978081205A312E9
:0A0EAE00101FAF4C12101FD290224B
:07113900C290120EEED290ED
:01114000228C
:10103800C290120EEEAD07ED7D00FC120EEEED2F04
:08104800FDE43CD290FEAF056F
:01105000227D
:100CC100C290120EEEE48F50F54FF54EF54DAC4D3E
:100CD100120EDDE4FCFDFEE5502FF550EE354FF52B
:100CE1004FED354EF54EEC354DF54DAF50FC120E36
:100CF100DDE4FCFDFEE5502FF550EE354FF54FEDEF
:100D0100354EF54EEC354DF54DD290AF50AE4FAD61
:020D11004EFC96
:010D130022BD
:030F910012113109
:100F9400E4FFFE30950B0FBF00010EBE1FF5BF40EE
:0D0FA400F2C3EF9440EE941F4003121006BC
:010FB100221D
:100DEF00EF24F0601624F0601224C060131460101A
:100DFF0024F1600C1460092471701E751A088003A9
:100E0F00751A18121131E51AAF19B408030211310E
:090E1F00AE18AD17AC16120E8ED0
:010E280022A7
:020BFC008F4325
:100BFE00E54324F0601624F0601224C060131460E4
:100C0E001024F1600C1460092471700A7544088078
:100C1E000C754418800774FFFFFEFDFC22E543446B
:100C2E0008FF121131E544B4100A121038E48F484F
:100C3E008E47800DE544B4080E121139E48F48F545
:100C4E0047F546F545800B120CC18F488E478D46F1
:0A0C5E008C45AF48AE47AD46AC45EB
:010C68002269
:100FD0008F26E526B401047F108007E526B4020AB7
:0B0FE0007F111211317F46120F912289
:100FEB008F1FE51FB401047F108007E51FB4020AB1
:0B0FFB007F111211317F86120F91222E
:100FB2008F54E554B401047F108007E554B4020D48
:0E0FC2007F111211317FC6121131120F9422CD
:020E29008F2612
:100E2B00E4F528F529F527120F94E526B401047F84
:100E3B00388007E526B402057F39121131121038BC
:100E4B008E288F290527E527C3940240DAAE28AFF9
:010E5B00296D
:010E5C002273
:0300230002000ACE
:01000A0032C3
:081141008F993099FDC299223B
:071149003098FDAF99C29838
:01115000227C
:100F4A008B518A528953AF051DEF6017AB51055378
:100F5A00E553AA527002055214F91204EEFF121157
:040F6A004180E322BD
:1010510053877F75985053890F438920758BFD7590
:071061008DFDC2ABD28E220F
:081151008F42121141AF42224E
:040006001211492268
:10002600EC4D6011E8497017ED33EC3304600DE4D4
:10003600FCFFFEFD22E933E8330470F802023F12AA
:10004600020A58046009E4CC2481500628500902AB
:100056000249284003020246C0E0EB4A7044B980D8
:1000660006D0E0FB020235EF4E701CBD8008EBFFA8
:10007600EAFEE9FD80EBE98DF0A4FEE5F002010F52
:10008600E9CDF9EAFEEBFFEF89F0A4FCE5F0CE89B5
:10009600F0A42EFFE435F0CD89F0A42DFEE435F072
:1000A6008067EF4E7005BD80D780C3EF8BF0A4ACA0
:1000B600F0EE8BF0A42CFCE435F0F8EF8AF0A42CDB
:1000C600E5F038FCE433CB8DF0A42CFCE5F03BF8EE
:1000D600EE8AF0A42CFCE5F038F8E433CF89F0A4DE
:1000E6002CFCE5F038CF3400CE89F0A42FFFE5F0E4
:1000F6003EFEE433C98DF0A42EFEE5F039CD8AF03C
:10010600A42FFFE5F03EFEE43DFD33D0E0FB5007B3
:100116000BBB000F020249EC2CFCEF33FFEE33FE63
:06012600ED33FD02022191
:10012C00020249EC5D046005E85904700302023FC9
:10013C0012020A580460F6EC4860F2EC7004FDFE02
:10014C00FF22C860DB2481C85009C39860025006A6
:10015C000202469850CAF582E9294B4A7005AB82D7
:10016C0002023575F0007C1A7880C3EF9BEE9AED95
:10017C0099400DC3EF9BFFEE9AFEED99FDE842F01E
:10018C00DC23ACF0D0E0FFD0E0FED0E0FDAB822071
:10019C00E7101BEB60BAEC2CFCEF33FFEE33FEEDFB
:1001AC0033FD020221E803F830E705C0F075F000DA
:1001BC00EF2FFFEE33FEED33FD40B830E7C280AADF
:1001CC0075F020800E75F010800575F0087D007EAE
:1001DC00007F003392D530D503120595EC334010D7
:1001EC00EF33FFEE33FEED33FDEC33FCD5F0ED22B7
:0E01FC00E5F0247EA2D513CC92E7CDCEFF22F3
:1005FF00E53D2429F8E6053D2278263007027829C3
:10060F00E475F0011205C90204EE2000EB7F2ED233
:10061F00008018EF540F2490D43440D4FF30040BD3
:10062F00EF24BFB41A0050032461FFE53E600215AA
:10063F003E0541E5417002054030070D7826E4750F
:10064F00F0011205C9EF0205340211517403D207EC
:10065F008003E4C207F53D8B268A278928E4F53EFF
:10066F00F540F541E53E60077F2012063A80F575AB
:10067F003FFFC201C200C202C203C205C206C208C6
:10068F00120608FF700D3007057F0012064BAF41B1
:10069F00AE4022B4255FC2D5C204120608FF24D093
:1006AF00B40A00501A75F00A783E30D50508B6FF27
:1006BF000106C6A426F620D5047002D20380D924E1
:1006CF00CFB41A00EF5004C2E5D204020938D201A8
:1006DF0080C6D20080C0D20280BCD2D580BAD205EB
:1006EF0080B47F2012063A2002077401B53E004005
:1006FF00F11205FFFF12063A020673D208D20680E6
:10070F00951205FFFB1205FFFA1205FFF94A4B7010
:10071F0006792F7A0A7BFF20022EE53E602A7E00A3
:10072F008E8275830012050760060EEE653F70F02E
:10073F00C2D5EBC0E0EAC0E0E9C0E0EE120998D004
:10074F00E0F9D0E0FAD0E0FB1204EEFF60AAEBC0B4
:10075F00E0EAC0E0E9C0E012063AD0E02401F9D0A7
:10076F00E03400FAD0E0FBE53F0460DCD53FD980F0
:10077F0087D20280A212097B60F7E53F7001041255
:10078F000254A93F600DE53F600914F53F120A229C
:10079F00EF60F3EA30E702F404C3995077EAF425E7
:1007AF003F0430E701E404F53F800D12097B60C17F
:1007BF00EA053F253F120254EA783CF630E701E4A0
:1007CF00253F04D53F0420050114120998E4C0E029
:1007DF00120A22783CE6601320E70714F61206226D
:1007EF00802204F6D0E014C0E07F00120622E53F1D
:1007FF006007120619153F800B300503120619D03A
:10080F00E0020673D0E00480C512097B60A0E53FCB
:10081F0004120254783CEAF6E53F20050260010419
:05082F002404120998E9
:1008340074FF04C0E0120A22120622E53F200502DA
:100844006003120619D0E0B53FE87F4512062C7804
:100854003CE67F2B30E7047F2DF404C0E012063A17
:10086400D0E075F00A84C0F0120623D0E01206230B
:10087400020673791080027908C206C2088008D281
:10088400D5790A8004790AC2D5E53F047002F53FA0
:10089400E4FAFDFEFF1205FFFC7B0820011312059C
:1008A400FFFD7B1030000A1205FFFE1205FFFF7BDF
:1008B40020EC3382D592D55013C3E43000069FFF59
:1008C400E49EFEE42001039DFDE49CFCE4CBF8C21D
:1008D40001EC700CCFCECDCCE824F8F870F380177F
:1008E400C3EF33FFEE33FEED33FDEC33FCEB33FBB0
:1008F400994002FB0FD8E9EB300105F8D0E0C44879
:10090400B201C0E00AEC4D4E4F78207B0070C2EA81
:10091400B53F0040BCC0E012099AD0F0D0E02001FD
:1009240004C4C0E0C4B201C0F0120623D0F0D5F074
:10093400EB0206731205D907105308775806E14CE9
:1009440006DD42087B4F08834408834906F64308C2
:10095400895507BA460818450784470A4F5006E5E3
:100964002D06E92E070C2B06ED23070A200A382A48
:1009740006A54800000704E53FB4FF03753F0612CF
:1009840005FFFC1205FFFD1205FFFE1205FFFF78AF
:1009940035020283790AA2D5200314300509B9105F
:1009A400020404B9080104A2D5200602500104205F
:1009B40002689202B53E005034C0E07F2030031933
:1009C4007F30A20272067205500F1209F1C202C2F0
:1009D40006C205C2087F30800F300503E9C0E0126B
:1009E400063A300503D0E0F9D0E0B53ECC30051727
:1009F4007F30B9100C12063A7F583004077F788094
:100A040003B9080312063A3002057F2D02063A7F25
:100A1400202008F87F2B2006F322920280CF7F004B
:100A2400B4070050052435F8E6FF22286E756C6C77
:100A34002900D2011205FF3001F8C201783E30D5F9
:100A44000108F60206A52D504349581205FF240358
:100A5400B405004001E4900A4A9312062B743A123A
:0A0A6400062BD203753E040208774A
:10020A00E9D2E7C933E833F892D5EDD2E7CD33EC3A
:07021A0033FC5002B2D522B3
:10022100EC30E7100FBF000C0EBE00080DBD00043E
:100231000BEB6014A2D5EB13FCED92E7FD2274FFEA
:10024100FCFDFEFF22E480F8A2D574FF13FC7D8043
:03025100E480EF57
:10025400F920E72824F950037907E4F42402FB1871
:10026400DBFDE624FB5014E9600DE4F618E604F621
:0F027400B40A08E4F6D9F57401F60A22C2D522BD
:10028300ED33EC3392D5FA602AB4FF33EDC2E77B4A
:10029300FF60067A0279A8E4227A0279B120D504B4
:1002A3007A0279AC224E614E002B494E46002D490D
:1002B3004E4600E47A08F608DAFC7B00740722E86D
:1002C300C0E0ECC0E0EDC0E0EEC0E0EFC0E0EA75F6
:1002D300F010A4CAABF075F04DA42BFBE435F0FC91
:1002E300EA2410FAEB34C5FBEC34D9FCEDC2E7FF8A
:1002F30075F056A4F42411C5F0F434C58FF0A42A84
:10030300E5F03BE43CF620E7141204AED0E0FFD066
:10031300E0FED0E0FDD0E0FC12012F8014F40412C3
:1003230004AED0E0FFD0E0FED0E0FDD0E0FC120050
:1003330026D0E0F8E6FAEDD2E7CD33EC332482FBA6
:10034300E4C3CF33CFCE33CECD33CD33DBF37B0713
:1003530075F00A846004F6081B0AE5F0F6088FF0CE
:10036300740AA4FFACF08EF0740AA42CFEACF05017
:10037300010C8DF0740AA42CFDE435F0F608DBDEE5
:03038300740722DA
:1003860002023FE86480F8E933E83360110460F064
:10039600ED33EC337009E8FCE9FDEAFEEBFF2204DD
:1003A60060DED3EB9FEA9EE99DE8C2E78CF0C2F7D8
:1003B60095F0400CE8CCF8E9CDF9EACEFAEBCFFBA4
:1003C60012020A85D0F05804700320D5B3E80470F1
:1003D600075002B2D502024992D5EC0460F7E4CC8C
:1003E600C0E0C398F8603B94186008400DD0E0FB6D
:1003F600020221E4FBFAC9FC8028E830E406E4C9DD
:10040600FBE4CAFCE830E305E4C9CACBFCE85407C0
:100416006010F8C3E913F9EA13FAEB13FBEC13FCCB
:10042600D8F130F52FC3E49CFCEF9BFFEE9AFEED6E
:1004360099FDD0E0FBEF4E4D4C701222DB03020219
:1004460046EC2CFCEF33FFEE33FEED33FDED30E7EB
:10045600EB020221EF2BFFEE3AFEED39FDD0E0FB79
:1004660050130BBB0003020249ED13FDEE13FEEF22
:0804760013FFEC13FC0202214C
:10047E003F8000004120000042C80000447A000086
:10048E00461C400047C35000497424004B18968008
:10049E004CBEBC205A0E1BCA6753C21C749DC5AEFF
:1004AE00FB60065407601C23231204DCEB543860F7
:1004BE00091204C81204D7120026ECF8EDF9EEFA70
:1004CE00EFCB22EB1204D780F1543803241C900496
:1004DE007EFE93FC0EEE93FD0EEE930ECE93FF2258
:03000000020B7080
:0C0B7000787FE4F6D8FD758154020BB7C5
:1004EE00BB010689828A83E0225002E722BBFE020C
:0904FE00E32289828A83E493223F
:10050700BB010CE58229F582E5833AF583E02250A9
:1005170006E92582F8E622BBFE06E92582F8E222F3
:0D052700E58229F582E5833AF583E493220D
:10053400BB010689828A83F0225002F722BBFE01A6
:02054400F322A0
:10054600E88FF0A4CC8BF0A42CFCE98EF0A42CFC54
:100556008AF0EDA42CFCEA8EF0A4CDA8F08BF0A4D2
:100566002DCC3825F0FDE98FF0A42CCD35F0FCEB31
:100576008EF0A4FEA9F0EB8FF0A4CFC5F02ECD39F6
:0F058600FEE43CFCEAA42DCE35F0FDE43CFC2263
:0E059500C3E49FFFE49EFEE49DFDE49CFC2277
:1005A300E8600FECC313FCED13FDEE13FEEF13FF36
:0305B300D8F1225A
:1005B600E8600FEFC333FFEE33FEED33FDEC33FCA3
:0305C600D8F12247
:1005C900FAE6FB0808E6F925F0F618E6CA3AF62233
:1005D900D083D082F8E4937012740193700DA3A3B1
:1005E90093F8740193F5828883E4737402936860C5
:0605F900EFA3A3A380DFC5
:100B7C00020A6EE493A3F8E493A34003F68001F217
:100B8C0008DFF48029E493A3F85407240CC8C3337A
:100B9C00C4540F4420C8834004F456800146F6DF49
:100BAC00E4800B010204081020408090111CE47EAC
:100BBC00019360BCA3FF543F30E509541FFEE4933E
:100BCC00A360010ECF54C025E060A840B8E493A305
:100BDC00FAE493A3F8E493A3C8C582C8CAC583CA30
:100BEC00F0A3C8C582C8CAC583CADFE9DEE780BEE8
:0111260000C8
:00000001FF
